{
  "_format": "hh-sol-artifact-1",
  "contractName": "CollateralController",
  "sourceName": "contracts/CollateralController.sol",
  "abi": [
    {
      "inputs": [],
      "stateMutability": "nonpayable",
      "type": "constructor"
    },
    {
      "inputs": [],
      "name": "AccessControlBadConfirmation",
      "type": "error"
    },
    {
      "inputs": [
        {
          "internalType": "address",
          "name": "account",
          "type": "address"
        },
        {
          "internalType": "bytes32",
          "name": "neededRole",
          "type": "bytes32"
        }
      ],
      "name": "AccessControlUnauthorizedAccount",
      "type": "error"
    },
    {
      "inputs": [],
      "name": "NotRewardPool",
      "type": "error"
    },
    {
      "anonymous": false,
      "inputs": [
        {
          "indexed": false,
          "internalType": "address",
          "name": "account",
          "type": "address"
        }
      ],
      "name": "AdminAdded",
      "type": "event"
    },
    {
      "anonymous": false,
      "inputs": [
        {
          "indexed": false,
          "internalType": "address",
          "name": "account",
          "type": "address"
        }
      ],
      "name": "AdminRemoved",
      "type": "event"
    },
    {
      "anonymous": false,
      "inputs": [
        {
          "indexed": false,
          "internalType": "address",
          "name": "account",
          "type": "address"
        }
      ],
      "name": "FactoryAdded",
      "type": "event"
    },
    {
      "anonymous": false,
      "inputs": [
        {
          "indexed": false,
          "internalType": "address",
          "name": "account",
          "type": "address"
        }
      ],
      "name": "FactoryRemoved",
      "type": "event"
    },
    {
      "anonymous": false,
      "inputs": [
        {
          "indexed": false,
          "internalType": "address",
          "name": "rewardPool",
          "type": "address"
        }
      ],
      "name": "RewardPoolPushed",
      "type": "event"
    },
    {
      "anonymous": false,
      "inputs": [
        {
          "indexed": true,
          "internalType": "bytes32",
          "name": "role",
          "type": "bytes32"
        },
        {
          "indexed": true,
          "internalType": "bytes32",
          "name": "previousAdminRole",
          "type": "bytes32"
        },
        {
          "indexed": true,
          "internalType": "bytes32",
          "name": "newAdminRole",
          "type": "bytes32"
        }
      ],
      "name": "RoleAdminChanged",
      "type": "event"
    },
    {
      "anonymous": false,
      "inputs": [
        {
          "indexed": true,
          "internalType": "bytes32",
          "name": "role",
          "type": "bytes32"
        },
        {
          "indexed": true,
          "internalType": "address",
          "name": "account",
          "type": "address"
        },
        {
          "indexed": true,
          "internalType": "address",
          "name": "sender",
          "type": "address"
        }
      ],
      "name": "RoleGranted",
      "type": "event"
    },
    {
      "anonymous": false,
      "inputs": [
        {
          "indexed": true,
          "internalType": "bytes32",
          "name": "role",
          "type": "bytes32"
        },
        {
          "indexed": true,
          "internalType": "address",
          "name": "account",
          "type": "address"
        },
        {
          "indexed": true,
          "internalType": "address",
          "name": "sender",
          "type": "address"
        }
      ],
      "name": "RoleRevoked",
      "type": "event"
    },
    {
      "anonymous": false,
      "inputs": [
        {
          "indexed": false,
          "internalType": "address",
          "name": "vaultDescriptor",
          "type": "address"
        }
      ],
      "name": "VaultDescriptorUpdated",
      "type": "event"
    },
    {
      "anonymous": false,
      "inputs": [
        {
          "indexed": false,
          "internalType": "address",
          "name": "vault",
          "type": "address"
        }
      ],
      "name": "VaultPushed",
      "type": "event"
    },
    {
      "inputs": [],
      "name": "ADMIN_ROLE",
      "outputs": [
        {
          "internalType": "bytes32",
          "name": "",
          "type": "bytes32"
        }
      ],
      "stateMutability": "view",
      "type": "function"
    },
    {
      "inputs": [],
      "name": "DEFAULT_ADMIN_ROLE",
      "outputs": [
        {
          "internalType": "bytes32",
          "name": "",
          "type": "bytes32"
        }
      ],
      "stateMutability": "view",
      "type": "function"
    },
    {
      "inputs": [],
      "name": "FACTORY_ROLE",
      "outputs": [
        {
          "internalType": "bytes32",
          "name": "",
          "type": "bytes32"
        }
      ],
      "stateMutability": "view",
      "type": "function"
    },
    {
      "inputs": [
        {
          "internalType": "address",
          "name": "account",
          "type": "address"
        }
      ],
      "name": "addAdmin",
      "outputs": [],
      "stateMutability": "nonpayable",
      "type": "function"
    },
    {
      "inputs": [
        {
          "internalType": "address",
          "name": "account",
          "type": "address"
        }
      ],
      "name": "addFactory",
      "outputs": [],
      "stateMutability": "nonpayable",
      "type": "function"
    },
    {
      "inputs": [
        {
          "internalType": "uint256",
          "name": "",
          "type": "uint256"
        }
      ],
      "name": "allRewardPools",
      "outputs": [
        {
          "internalType": "address",
          "name": "",
          "type": "address"
        }
      ],
      "stateMutability": "view",
      "type": "function"
    },
    {
      "inputs": [],
      "name": "allRewardPoolsLength",
      "outputs": [
        {
          "internalType": "uint256",
          "name": "",
          "type": "uint256"
        }
      ],
      "stateMutability": "view",
      "type": "function"
    },
    {
      "inputs": [
        {
          "internalType": "uint256",
          "name": "",
          "type": "uint256"
        }
      ],
      "name": "allVaults",
      "outputs": [
        {
          "internalType": "address",
          "name": "",
          "type": "address"
        }
      ],
      "stateMutability": "view",
      "type": "function"
    },
    {
      "inputs": [],
      "name": "allVaultsLength",
      "outputs": [
        {
          "internalType": "uint256",
          "name": "",
          "type": "uint256"
        }
      ],
      "stateMutability": "view",
      "type": "function"
    },
    {
      "inputs": [
        {
          "internalType": "address",
          "name": "creator",
          "type": "address"
        }
      ],
      "name": "getRewardPoolsByCreator",
      "outputs": [
        {
          "internalType": "address[]",
          "name": "",
          "type": "address[]"
        }
      ],
      "stateMutability": "view",
      "type": "function"
    },
    {
      "inputs": [
        {
          "internalType": "bytes32",
          "name": "role",
          "type": "bytes32"
        }
      ],
      "name": "getRoleAdmin",
      "outputs": [
        {
          "internalType": "bytes32",
          "name": "",
          "type": "bytes32"
        }
      ],
      "stateMutability": "view",
      "type": "function"
    },
    {
      "inputs": [
        {
          "internalType": "address",
          "name": "owner",
          "type": "address"
        }
      ],
      "name": "getVaultsByOwner",
      "outputs": [
        {
          "internalType": "address[]",
          "name": "",
          "type": "address[]"
        }
      ],
      "stateMutability": "view",
      "type": "function"
    },
    {
      "inputs": [
        {
          "internalType": "bytes32",
          "name": "role",
          "type": "bytes32"
        },
        {
          "internalType": "address",
          "name": "account",
          "type": "address"
        }
      ],
      "name": "grantRole",
      "outputs": [],
      "stateMutability": "nonpayable",
      "type": "function"
    },
    {
      "inputs": [
        {
          "internalType": "bytes32",
          "name": "role",
          "type": "bytes32"
        },
        {
          "internalType": "address",
          "name": "account",
          "type": "address"
        }
      ],
      "name": "hasRole",
      "outputs": [
        {
          "internalType": "bool",
          "name": "",
          "type": "bool"
        }
      ],
      "stateMutability": "view",
      "type": "function"
    },
    {
      "inputs": [
        {
          "internalType": "address",
          "name": "",
          "type": "address"
        }
      ],
      "name": "isRewardPool",
      "outputs": [
        {
          "internalType": "bool",
          "name": "",
          "type": "bool"
        }
      ],
      "stateMutability": "view",
      "type": "function"
    },
    {
      "inputs": [
        {
          "internalType": "address",
          "name": "_rewardPool",
          "type": "address"
        }
      ],
      "name": "pushRewardPool",
      "outputs": [],
      "stateMutability": "nonpayable",
      "type": "function"
    },
    {
      "inputs": [
        {
          "internalType": "address",
          "name": "_vault",
          "type": "address"
        }
      ],
      "name": "pushVault",
      "outputs": [],
      "stateMutability": "nonpayable",
      "type": "function"
    },
    {
      "inputs": [
        {
          "internalType": "address",
          "name": "account",
          "type": "address"
        }
      ],
      "name": "removeAdmin",
      "outputs": [],
      "stateMutability": "nonpayable",
      "type": "function"
    },
    {
      "inputs": [
        {
          "internalType": "address",
          "name": "account",
          "type": "address"
        }
      ],
      "name": "removeFactory",
      "outputs": [],
      "stateMutability": "nonpayable",
      "type": "function"
    },
    {
      "inputs": [
        {
          "internalType": "bytes32",
          "name": "role",
          "type": "bytes32"
        },
        {
          "internalType": "address",
          "name": "callerConfirmation",
          "type": "address"
        }
      ],
      "name": "renounceRole",
      "outputs": [],
      "stateMutability": "nonpayable",
      "type": "function"
    },
    {
      "inputs": [
        {
          "internalType": "bytes32",
          "name": "role",
          "type": "bytes32"
        },
        {
          "internalType": "address",
          "name": "account",
          "type": "address"
        }
      ],
      "name": "revokeRole",
      "outputs": [],
      "stateMutability": "nonpayable",
      "type": "function"
    },
    {
      "inputs": [
        {
          "internalType": "bytes4",
          "name": "interfaceId",
          "type": "bytes4"
        }
      ],
      "name": "supportsInterface",
      "outputs": [
        {
          "internalType": "bool",
          "name": "",
          "type": "bool"
        }
      ],
      "stateMutability": "view",
      "type": "function"
    },
    {
      "inputs": [
        {
          "internalType": "address",
          "name": "_vaultDescriptor",
          "type": "address"
        }
      ],
      "name": "updateVaultDescriptor",
      "outputs": [],
      "stateMutability": "nonpayable",
      "type": "function"
    },
    {
      "inputs": [],
      "name": "vaultDescriptor",
      "outputs": [
        {
          "internalType": "address",
          "name": "",
          "type": "address"
        }
      ],
      "stateMutability": "view",
      "type": "function"
    }
  ],
  "bytecode": "0x60806040523461004c5761001233610051565b507f44d6d25963f097ad14f29f06854a01f575648a1ef82f30e562ccd3889717e3396020604051338152a16040516112eb90816101028239f35b600080fd5b6001600160a01b03811660009081526000805160206113ed833981519152602052604090205460ff166100fb576001600160a01b031660008181526000805160206113ed83398151915260205260408120805460ff191660011790553391907fa49807205ce4d355092ef5a8a18f56e8913cf4a201fbe287825b095693c21775907f2f8788117e7eff1d82e926ec794901d17c78024a50270940304540a733656f0d9080a4600190565b5060009056fe608080604052600436101561001357600080fd5b60003560e01c90816301ffc9a714610b645750806304a0fb1714610b295780630a9ab83f1461098a5780631785f53c1461093d578063248a9ca31461090857806324aa98ee14610834578063260baa461461080357806329ce1ec5146107b65780632f2ff15d1461077657806336568abe146107175780634b37c73f146106ca5780634cd18577146106ac578063704802751461064c57806375b238fc14610611578063851e8d07146104e05780639094a91e1461049f57806391d148541461045157806391e9840a14610412578063a217fddf146103f6578063ac81871114610238578063d547741f146101f1578063e1cbb313146101d3578063ebc1037b146101ac5763f58188191461012757600080fd5b346101a75760203660031901126101a7577f9ca8f838540aee93970626ddb584089e8f0f912a0da72f924155c5d37cc5807e60206001600160a01b0361016b610c02565b610173610d99565b16807fffffffffffffffffffffffff00000000000000000000000000000000000000006003541617600355604051908152a1005b600080fd5b346101a75760003660031901126101a75760206001600160a01b0360035416604051908152f35b346101a75760003660031901126101a7576020600254604051908152f35b346101a75760403660031901126101a757610236600435610210610c18565b9061023161022c82600052600060205260016040600020015490565b610e0b565b610ff0565b005b346101a75760203660031901126101a757610251610c02565b6001546001600160a01b03909116906000805b82811061035e575061027590610d53565b906000805b828110610293576040518061028f8682610c2e565b0390f35b602460206001600160a01b036102a884610ca2565b90549060031b1c16604051928380926370a0823160e01b82528a60048301525afa9081156103525760009161031e575b506102e6575b60010161027a565b906103166001916001600160a01b036102fe85610ca2565b90549060031b1c166103108288610d85565b52610d16565b9190506102de565b906020823d821161034a575b8161033760209383610cd5565b81010312610347575051866102d8565b80fd5b3d915061032a565b6040513d6000823e3d90fd5b602460206001600160a01b0361037384610ca2565b90549060031b1c16604051928380926370a0823160e01b82528960048301525afa908115610352576000916103c5575b506103b1575b600101610264565b906103bd600191610d16565b9190506103a9565b906020823d82116103ee575b816103de60209383610cd5565b81010312610347575051856103a3565b3d91506103d1565b346101a75760003660031901126101a757602060405160008152f35b346101a75760203660031901126101a7576001600160a01b03610433610c02565b166000526004602052602060ff604060002054166040519015158152f35b346101a75760403660031901126101a75761046a610c18565b60043560005260006020526001600160a01b0360406000209116600052602052602060ff604060002054166040519015158152f35b346101a75760203660031901126101a7576004356001548110156101a7576001600160a01b036104d0602092610ca2565b90549060031b1c16604051908152f35b346101a75760203660031901126101a7576104f9610c02565b3360009081527faae065819044e7c1f6f3a25fcf56eec95d9ef9dcbfbb8eb1f8a4a273b3bd0146602052604090205460ff16156105d85760025490680100000000000000008210156105c2576001600160a01b036020916105838460017fdc7a775e187c09790adabab705ac7af22b982751086e7934fe36cc82d2687cb696016002556002610cbd565b929091169181549060031b906001600160a01b0384831b921b191617905580600052600482526040600020600160ff19825416179055604051908152a1005b634e487b7160e01b600052604160045260246000fd5b63e2517d3f60e01b600052336004527fdfbefbf47cfe66b701d8cfdbce1de81c821590819cb07e71cb01b6602fb0ee2760245260446000fd5b346101a75760003660031901126101a75760206040517fa49807205ce4d355092ef5a8a18f56e8913cf4a201fbe287825b095693c217758152f35b346101a75760203660031901126101a7577f44d6d25963f097ad14f29f06854a01f575648a1ef82f30e562ccd3889717e3396020610688610c02565b610690610d99565b61069981611154565b506001600160a01b0360405191168152a1005b346101a75760003660031901126101a7576020600154604051908152f35b346101a75760203660031901126101a7577fafa2737b2090fa39c66b7348625f0c03726240f724defbc6216d679506f944416020610706610c02565b61070e610d99565b61069981610f24565b346101a75760403660031901126101a757610730610c18565b336001600160a01b0382160361074c5761023690600435610ff0565b7f6697b2320000000000000000000000000000000000000000000000000000000060005260046000fd5b346101a75760403660031901126101a757610236600435610795610c18565b906107b161022c82600052600060205260016040600020015490565b611222565b346101a75760203660031901126101a7577f6fdc0147105e43e21da80a75b42d0fd464060d5e1a34b0cefbf0b4ccfc2e36a160206107f2610c02565b6107fa610d99565b61069981611086565b346101a75760203660031901126101a7576004356002548110156101a7576001600160a01b036104d0602092610c71565b346101a75760203660031901126101a75761084d610c02565b33600052600460205260ff60406000205416156108de5760015490680100000000000000008210156105c2576001600160a01b036020916108b78460017fd86fc81d1927d0446964b49f0b3ff54de0bea26150377c283977076d00b8988d96016001556001610cbd565b929091169181549060031b906001600160a01b0384831b921b1916179055604051908152a1005b7fa71659760000000000000000000000000000000000000000000000000000000060005260046000fd5b346101a75760203660031901126101a7576020610935600435600052600060205260016040600020015490565b604051908152f35b346101a75760203660031901126101a7577fa3b62bc36326052d97ea62d63c3d60308ed4c3ea8ac079dd8499f1e9c4f80c0f6020610979610c02565b610981610d99565b61069981610e52565b346101a75760203660031901126101a7576109a3610c02565b6002546001600160a01b03909116906000805b828110610a9d57506109c790610d53565b9160009060005b8381106109e3576040518061028f8782610c2e565b600460206001600160a01b036109f884610c71565b90549060031b1c16604051928380926302d05d3f60e01b82525afa9081156103525783916001600160a01b0391600091610a6f575b501614610a3d575b6001016109ce565b91610a676001916001600160a01b03610a5586610c71565b90549060031b1c166103108289610d85565b929050610a35565b610a90915060203d8111610a96575b610a888183610cd5565b810190610cf7565b88610a2d565b503d610a7e565b600460206001600160a01b03610ab284610c71565b90549060031b1c16604051928380926302d05d3f60e01b82525afa9081156103525785916001600160a01b0391600091610b0b575b501614610af7575b6001016109b6565b90610b03600191610d16565b919050610aef565b610b23915060203d8111610a9657610a888183610cd5565b87610ae7565b346101a75760003660031901126101a75760206040517fdfbefbf47cfe66b701d8cfdbce1de81c821590819cb07e71cb01b6602fb0ee278152f35b346101a75760203660031901126101a757600435907fffffffff0000000000000000000000000000000000000000000000000000000082168092036101a757817f7965db0b0000000000000000000000000000000000000000000000000000000060209314908115610bd8575b5015158152f35b7f01ffc9a70000000000000000000000000000000000000000000000000000000091501483610bd1565b600435906001600160a01b03821682036101a757565b602435906001600160a01b03821682036101a757565b602060408183019282815284518094520192019060005b818110610c525750505090565b82516001600160a01b0316845260209384019390920191600101610c45565b600254811015610c8c57600260005260206000200190600090565b634e487b7160e01b600052603260045260246000fd5b600154811015610c8c57600160005260206000200190600090565b8054821015610c8c5760005260206000200190600090565b90601f8019910116810190811067ffffffffffffffff8211176105c257604052565b908160209103126101a757516001600160a01b03811681036101a75790565b6000198114610d255760010190565b634e487b7160e01b600052601160045260246000fd5b67ffffffffffffffff81116105c25760051b60200190565b90610d5d82610d3b565b610d6a6040519182610cd5565b8281528092610d7b601f1991610d3b565b0190602036910137565b8051821015610c8c5760209160051b010190565b3360009081527f7d7ffb7a348e1c6a02869081a26547b49160dd3df72d1d75a570eb9b698292ec602052604090205460ff1615610dd257565b63e2517d3f60e01b600052336004527fa49807205ce4d355092ef5a8a18f56e8913cf4a201fbe287825b095693c2177560245260446000fd5b80600052600060205260406000206001600160a01b03331660005260205260ff6040600020541615610e3a5750565b63e2517d3f60e01b6000523360045260245260446000fd5b6001600160a01b03811660009081527f7d7ffb7a348e1c6a02869081a26547b49160dd3df72d1d75a570eb9b698292ec602052604090205460ff1615610f1e576001600160a01b031660008181527f7d7ffb7a348e1c6a02869081a26547b49160dd3df72d1d75a570eb9b698292ec60205260408120805460ff191690553391907fa49807205ce4d355092ef5a8a18f56e8913cf4a201fbe287825b095693c21775907ff6391f5c32d9c69d2a47ea670b442974b53935d1edc7fd64eb21e047a839171b9080a4600190565b50600090565b6001600160a01b03811660009081527faae065819044e7c1f6f3a25fcf56eec95d9ef9dcbfbb8eb1f8a4a273b3bd0146602052604090205460ff1615610f1e576001600160a01b031660008181527faae065819044e7c1f6f3a25fcf56eec95d9ef9dcbfbb8eb1f8a4a273b3bd014660205260408120805460ff191690553391907fdfbefbf47cfe66b701d8cfdbce1de81c821590819cb07e71cb01b6602fb0ee27907ff6391f5c32d9c69d2a47ea670b442974b53935d1edc7fd64eb21e047a839171b9080a4600190565b80600052600060205260406000206001600160a01b03831660005260205260ff6040600020541660001461107f5780600052600060205260406000206001600160a01b038316600052602052604060002060ff1981541690556001600160a01b03339216907ff6391f5c32d9c69d2a47ea670b442974b53935d1edc7fd64eb21e047a839171b600080a4600190565b5050600090565b6001600160a01b03811660009081527faae065819044e7c1f6f3a25fcf56eec95d9ef9dcbfbb8eb1f8a4a273b3bd0146602052604090205460ff16610f1e576001600160a01b031660008181527faae065819044e7c1f6f3a25fcf56eec95d9ef9dcbfbb8eb1f8a4a273b3bd014660205260408120805460ff191660011790553391907fdfbefbf47cfe66b701d8cfdbce1de81c821590819cb07e71cb01b6602fb0ee27907f2f8788117e7eff1d82e926ec794901d17c78024a50270940304540a733656f0d9080a4600190565b6001600160a01b03811660009081527f7d7ffb7a348e1c6a02869081a26547b49160dd3df72d1d75a570eb9b698292ec602052604090205460ff16610f1e576001600160a01b031660008181527f7d7ffb7a348e1c6a02869081a26547b49160dd3df72d1d75a570eb9b698292ec60205260408120805460ff191660011790553391907fa49807205ce4d355092ef5a8a18f56e8913cf4a201fbe287825b095693c21775907f2f8788117e7eff1d82e926ec794901d17c78024a50270940304540a733656f0d9080a4600190565b80600052600060205260406000206001600160a01b03831660005260205260ff604060002054161560001461107f5780600052600060205260406000206001600160a01b0383166000526020526040600020600160ff198254161790556001600160a01b03339216907f2f8788117e7eff1d82e926ec794901d17c78024a50270940304540a733656f0d600080a460019056fea2646970667358221220c6741cdf53b2f33c46d10d0975f5ffb5df45223e734f89dceb99432671337ddd64736f6c634300081c00337d7ffb7a348e1c6a02869081a26547b49160dd3df72d1d75a570eb9b698292ec",
  "linkReferences": {},
  "deployedLinkReferences": {}
}