{
  "_format": "hh-sol-artifact-1",
  "contractName": "CollateralVaultDescriptor",
  "sourceName": "contracts/CollateralVaultDescriptor.sol",
  "abi": [
    {
      "inputs": [
        {
          "internalType": "string",
          "name": "ipfsGateway",
          "type": "string"
        }
      ],
      "stateMutability": "nonpayable",
      "type": "constructor"
    },
    {
      "inputs": [],
      "name": "AccessControlBadConfirmation",
      "type": "error"
    },
    {
      "inputs": [
        {
          "internalType": "address",
          "name": "account",
          "type": "address"
        },
        {
          "internalType": "bytes32",
          "name": "neededRole",
          "type": "bytes32"
        }
      ],
      "name": "AccessControlUnauthorizedAccount",
      "type": "error"
    },
    {
      "inputs": [],
      "name": "MissingImage",
      "type": "error"
    },
    {
      "anonymous": false,
      "inputs": [
        {
          "indexed": false,
          "internalType": "string",
          "name": "oldGateway",
          "type": "string"
        },
        {
          "indexed": false,
          "internalType": "string",
          "name": "newGateway",
          "type": "string"
        }
      ],
      "name": "IpfsGatewayUpdated",
      "type": "event"
    },
    {
      "anonymous": false,
      "inputs": [
        {
          "indexed": true,
          "internalType": "bytes32",
          "name": "role",
          "type": "bytes32"
        },
        {
          "indexed": true,
          "internalType": "bytes32",
          "name": "previousAdminRole",
          "type": "bytes32"
        },
        {
          "indexed": true,
          "internalType": "bytes32",
          "name": "newAdminRole",
          "type": "bytes32"
        }
      ],
      "name": "RoleAdminChanged",
      "type": "event"
    },
    {
      "anonymous": false,
      "inputs": [
        {
          "indexed": true,
          "internalType": "bytes32",
          "name": "role",
          "type": "bytes32"
        },
        {
          "indexed": true,
          "internalType": "address",
          "name": "account",
          "type": "address"
        },
        {
          "indexed": true,
          "internalType": "address",
          "name": "sender",
          "type": "address"
        }
      ],
      "name": "RoleGranted",
      "type": "event"
    },
    {
      "anonymous": false,
      "inputs": [
        {
          "indexed": true,
          "internalType": "bytes32",
          "name": "role",
          "type": "bytes32"
        },
        {
          "indexed": true,
          "internalType": "address",
          "name": "account",
          "type": "address"
        },
        {
          "indexed": true,
          "internalType": "address",
          "name": "sender",
          "type": "address"
        }
      ],
      "name": "RoleRevoked",
      "type": "event"
    },
    {
      "inputs": [],
      "name": "DEFAULT_ADMIN_ROLE",
      "outputs": [
        {
          "internalType": "bytes32",
          "name": "",
          "type": "bytes32"
        }
      ],
      "stateMutability": "view",
      "type": "function"
    },
    {
      "inputs": [
        {
          "internalType": "address",
          "name": "vault",
          "type": "address"
        },
        {
          "internalType": "uint256",
          "name": "tokenId",
          "type": "uint256"
        }
      ],
      "name": "buildTokenURI",
      "outputs": [
        {
          "internalType": "string",
          "name": "",
          "type": "string"
        }
      ],
      "stateMutability": "view",
      "type": "function"
    },
    {
      "inputs": [
        {
          "internalType": "bytes32",
          "name": "role",
          "type": "bytes32"
        }
      ],
      "name": "getRoleAdmin",
      "outputs": [
        {
          "internalType": "bytes32",
          "name": "",
          "type": "bytes32"
        }
      ],
      "stateMutability": "view",
      "type": "function"
    },
    {
      "inputs": [
        {
          "internalType": "bytes32",
          "name": "role",
          "type": "bytes32"
        },
        {
          "internalType": "address",
          "name": "account",
          "type": "address"
        }
      ],
      "name": "grantRole",
      "outputs": [],
      "stateMutability": "nonpayable",
      "type": "function"
    },
    {
      "inputs": [
        {
          "internalType": "bytes32",
          "name": "role",
          "type": "bytes32"
        },
        {
          "internalType": "address",
          "name": "account",
          "type": "address"
        }
      ],
      "name": "hasRole",
      "outputs": [
        {
          "internalType": "bool",
          "name": "",
          "type": "bool"
        }
      ],
      "stateMutability": "view",
      "type": "function"
    },
    {
      "inputs": [
        {
          "internalType": "bytes32",
          "name": "role",
          "type": "bytes32"
        },
        {
          "internalType": "address",
          "name": "callerConfirmation",
          "type": "address"
        }
      ],
      "name": "renounceRole",
      "outputs": [],
      "stateMutability": "nonpayable",
      "type": "function"
    },
    {
      "inputs": [
        {
          "internalType": "bytes32",
          "name": "role",
          "type": "bytes32"
        },
        {
          "internalType": "address",
          "name": "account",
          "type": "address"
        }
      ],
      "name": "revokeRole",
      "outputs": [],
      "stateMutability": "nonpayable",
      "type": "function"
    },
    {
      "inputs": [
        {
          "internalType": "bytes4",
          "name": "interfaceId",
          "type": "bytes4"
        }
      ],
      "name": "supportsInterface",
      "outputs": [
        {
          "internalType": "bool",
          "name": "",
          "type": "bool"
        }
      ],
      "stateMutability": "view",
      "type": "function"
    },
    {
      "inputs": [
        {
          "internalType": "string",
          "name": "ipfsGateway",
          "type": "string"
        }
      ],
      "name": "updateIpfsGateway",
      "outputs": [],
      "stateMutability": "nonpayable",
      "type": "function"
    }
  ],
  "bytecode": "0x608060405234610229576114a5803803806100198161022e565b928339810190602081830312610229578051906001600160401b038211610229570181601f82011215610229578051906001600160401b0382116101fe5761006a601f8301601f191660200161022e565b92828452602083830101116102295760005b82811061021457600083850160200152835184906001600160401b0381116101fe57600154600181811c911680156101f4575b60208210146101de57601f8111610179575b50602091601f82116001146101155791819260009261010a575b50508160011b916000199060031b1c1916176001555b6100fa33610253565b506040516111a390816102e28239f35b0151905082806100db565b601f198216926001600052806000209160005b85811061016157508360019510610148575b505050811b016001556100f1565b015160001960f88460031b161c1916905582808061013a565b91926020600181928685015181550194019201610128565b60016000527fb10e2d527612073b26eecdfd717e6a320cf44b4afac2b0732d9fcbe2b7fa0cf6601f830160051c810191602084106101d4575b601f0160051c01905b8181106101c857506100c1565b600081556001016101bb565b90915081906101b2565b634e487b7160e01b600052602260045260246000fd5b90607f16906100af565b634e487b7160e01b600052604160045260246000fd5b8060208092840101518282870101520161007c565b600080fd5b6040519190601f01601f191682016001600160401b038111838210176101fe57604052565b6001600160a01b0381166000908152600080516020611485833981519152602052604090205460ff166102db576001600160a01b0316600081815260008051602061148583398151915260205260408120805460ff191660011790553391907f2f8788117e7eff1d82e926ec794901d17c78024a50270940304540a733656f0d8180a4600190565b5060009056fe608080604052600436101561001357600080fd5b60003560e01c90816301ffc9a714610b4657508063248a9ca314610b115780632f2ff15d14610ad157806336568abe14610a72578063790587d1146106f057806391d14854146106a2578063a217fddf14610686578063b25457d3146100ce5763d547741f1461008257600080fd5b346100c95760403660031901126100c9576100c76004356100a1610be4565b906100c26100bd82600052600060205260016040600020015490565b610d20565b610e01565b005b600080fd5b346100c95760403660031901126100c9576004356001600160a01b0381168091036100c9576040517f11abc6f3000000000000000000000000000000000000000000000000000000008152600081600481855afa801561067a576000906104ce575b61013b915051610edc565b6040906004600061018084516101518682610bfa565b601a81527f4b65797320746f20636f6c6c61746572616c207661756c74732e0000000000006020820152610edc565b948451928380927ff3ccaac00000000000000000000000000000000000000000000000000000000082525afa9081156104c35760009161047b575b5080511561045157825160208101916000906001546101d981610c80565b906001811690811561043757506001146103dd575b506103739460126103d9989585610228610312976020886102198960029b600d9b5194859201610c38565b0103601f198101835282610bfa565b6102db60298b51998a967f7b226e616d65223a220000000000000000000000000000000000000000000000602089015261026b815180926020868c019101610c38565b87017f222c20226465736372697074696f6e223a220000000000000000000000000000838201526102a6825180936020603b85019101610c38565b0101917f222c2022696d616765223a20220000000000000000000000000000000000000085840152518093601f840190610c38565b01017f227d000000000000000000000000000000000000000000000000000000000000838201520301601d19810184520182610bfa565b825190610320606083610bfa565b8382527f4142434445464748494a4b4c4d4e4f505152535455565758595a61626364656660208301527f6768696a6b6c6d6e6f707172737475767778797a303132333435363738392b2f84830152611038565b906103c7603d825180947f646174613a6170706c69636174696f6e2f6a736f6e3b6261736536342c00000060208301526103b68151809260208686019101610c38565b81010301601f198101845283610bfa565b51918291602083526020830190610c5b565b0390f35b90915060016000527fb10e2d527612073b26eecdfd717e6a320cf44b4afac2b0732d9fcbe2b7fa0cf66000905b8282106104215750508201602001906103736101ee565b600181602092548385890101520191019061040a565b60ff191686525080151502830160200191506103736101ee565b7fe63c74850000000000000000000000000000000000000000000000000000000060005260046000fd5b903d8082843e61048b8184610bfa565b8201916020818403126104bf5780519167ffffffffffffffff83116104bc57506104b6929101610cba565b846101bb565b80fd5b5080fd5b83513d6000823e3d90fd5b3d8082843e6104dd8184610bfa565b8201916020818403126104bf5780519067ffffffffffffffff8211610662570190610240828403126104bc5760405192610240840184811067ffffffffffffffff82111761066657604052825167ffffffffffffffff81116106625781610545918501610cba565b845261055360208401610cff565b602085015261056460408401610d13565b604085015261057560608401610d13565b60608501526080830151608085015260a083015160a085015260c083015160c085015260e083015160e085015261010083015167ffffffffffffffff811161066257906105c3918401610cba565b61010084015261012082015161012084015261014082015160ff811681036104bf576101408401526101608201516101608401526101808201516101808401526106106101a08301610cff565b6101a08401526106236101c08301610cff565b6101c08401526101e08201516101e08401526102008201519060028210156104bc575082916102209161020061013b9501520151610220820152610130565b8280fd5b602483634e487b7160e01b81526041600452fd5b6040513d6000823e3d90fd5b346100c95760003660031901126100c957602060405160008152f35b346100c95760403660031901126100c9576106bb610be4565b60043560005260006020526001600160a01b0360406000209116600052602052602060ff604060002054166040519015158152f35b346100c95760203660031901126100c95760043567ffffffffffffffff81116100c957366023820112156100c957806004013561072c81610c1c565b9161073a6040519384610bfa565b81835236602483830101116100c9578160009260246020930183860137830101523360009081527fad3228b676f7d3cd4284a5443f17f1962b36e491b30a40b2405849e597ba5fb5602052604090205460ff1615610a5857604051600154916000826107a585610c80565b80825291600186168015610a3a576001146109d9575b6107c792500383610bfa565b80519267ffffffffffffffff84116109c3576107e290610c80565b601f8111610920575b50602092601f811160011461087557610857929181610865927fb1f08c04a81b948cfc13e9206a63c4f8233d4173b2a28c555148262fb37fbb229660009161086a575b508160011b916000199060031b1c1916176001555b604051938493604085526040850190610c5b565b908382036020850152610c5b565b0390a1005b90508201518761082e565b601f19811660016000527fb10e2d527612073b26eecdfd717e6a320cf44b4afac2b0732d9fcbe2b7fa0cf69060005b8181106109085750826108579594927fb1f08c04a81b948cfc13e9206a63c4f8233d4173b2a28c555148262fb37fbb229761086595600194106108ef575b5050811b01600155610843565b84015160001960f88460031b161c1916905587806108e2565b848701518355602096870196600190930192016108a4565b6001600052601f840160051c7fb10e2d527612073b26eecdfd717e6a320cf44b4afac2b0732d9fcbe2b7fa0cf601906020851061099b575b601f0160051c7fb10e2d527612073b26eecdfd717e6a320cf44b4afac2b0732d9fcbe2b7fa0cf601905b81811061098f57506107eb565b60008155600101610982565b7fb10e2d527612073b26eecdfd717e6a320cf44b4afac2b0732d9fcbe2b7fa0cf69150610958565b634e487b7160e01b600052604160045260246000fd5b509060016000527fb10e2d527612073b26eecdfd717e6a320cf44b4afac2b0732d9fcbe2b7fa0cf6906000915b818310610a1e5750509060206107c7928201016107bb565b6020919350806001915483858901015201910190918492610a06565b505060206107c79260ff19871682840152151560051b8201016107bb565b63e2517d3f60e01b60005233600452600060245260446000fd5b346100c95760403660031901126100c957610a8b610be4565b336001600160a01b03821603610aa7576100c790600435610e01565b7f6697b2320000000000000000000000000000000000000000000000000000000060005260046000fd5b346100c95760403660031901126100c9576100c7600435610af0610be4565b90610b0c6100bd82600052600060205260016040600020015490565b610d67565b346100c95760203660031901126100c9576020610b3e600435600052600060205260016040600020015490565b604051908152f35b346100c95760203660031901126100c957600435907fffffffff0000000000000000000000000000000000000000000000000000000082168092036100c957817f7965db0b0000000000000000000000000000000000000000000000000000000060209314908115610bba575b5015158152f35b7f01ffc9a70000000000000000000000000000000000000000000000000000000091501483610bb3565b602435906001600160a01b03821682036100c957565b90601f8019910116810190811067ffffffffffffffff8211176109c357604052565b67ffffffffffffffff81116109c357601f01601f191660200190565b60005b838110610c4b5750506000910152565b8181015183820152602001610c3b565b90602091610c7481518092818552858086019101610c38565b601f01601f1916010190565b90600182811c92168015610cb0575b6020831014610c9a57565b634e487b7160e01b600052602260045260246000fd5b91607f1691610c8f565b81601f820112156100c9578051610cd081610c1c565b92610cde6040519485610bfa565b818452602082840101116100c957610cfc9160208085019101610c38565b90565b51906001600160a01b03821682036100c957565b519081151582036100c957565b80600052600060205260406000206001600160a01b03331660005260205260ff6040600020541615610d4f5750565b63e2517d3f60e01b6000523360045260245260446000fd5b80600052600060205260406000206001600160a01b03831660005260205260ff6040600020541615600014610dfa5780600052600060205260406000206001600160a01b0383166000526020526040600020600160ff198254161790556001600160a01b03339216907f2f8788117e7eff1d82e926ec794901d17c78024a50270940304540a733656f0d600080a4600190565b5050600090565b80600052600060205260406000206001600160a01b03831660005260205260ff60406000205416600014610dfa5780600052600060205260406000206001600160a01b038316600052602052604060002060ff1981541690556001600160a01b03339216907ff6391f5c32d9c69d2a47ea670b442974b53935d1edc7fd64eb21e047a839171b600080a4600190565b908151811015610ea1570160200190565b634e487b7160e01b600052603260045260246000fd5b6000198114610ec65760010190565b634e487b7160e01b600052601160045260246000fd5b906000805b8351811015610f3e57601160f91b7fff00000000000000000000000000000000000000000000000000000000000000610f1a8387610e90565b511614610f2a575b600101610ee1565b90610f36600191610eb7565b919050610f22565b5080610f475750565b8251908101809111610ec657610f5c81610c1c565b90610f6a6040519283610bfa565b808252610f79601f1991610c1c565b0136602083013760009260005b81518110156110315780601160f91b7fff00000000000000000000000000000000000000000000000000000000000000610fc260019486610e90565b511614611016575b7fff00000000000000000000000000000000000000000000000000000000000000610ff58285610e90565b51169561100f61100482610eb7565b9760001a9186610e90565b5301610f86565b605c61102b61102488610eb7565b9786610e90565b53610fca565b5090925050565b91909180511561115557805160028101809111610ec65760039004908160021b917f3fffffffffffffffffffffffffffffffffffffffffffffffffffffffffffffff811603610ec6576110a361108d83610c1c565b9261109b6040519485610bfa565b808452610c1c565b6020830190601f1901368237908081518201956020870190815192600083525b88811061110757505060039394959650525106806001146110f4576002146110e9575090565b603d90600019015390565b50603d9081600019820153600119015390565b600360049199969901986001603f8b5182828260121c16870101518453828282600c1c16870101518385015382828260061c16870101516002850153168401015160038201530194976110c3565b509050604051611166602082610bfa565b600081529056fea26469706673582212205af4da49af21ead6116d8e243f9f0205064697554d0b83696d5ea31be0ce5f7464736f6c634300081c0033ad3228b676f7d3cd4284a5443f17f1962b36e491b30a40b2405849e597ba5fb5",
  "linkReferences": {},
  "deployedLinkReferences": {}
}