{
  "_format": "hh-sol-artifact-1",
  "contractName": "CollateralVaultDescriptor",
  "sourceName": "contracts/CollateralVaultDescriptor.sol",
  "abi": [
    {
      "inputs": [
        {
          "internalType": "string",
          "name": "ipfsGateway",
          "type": "string"
        }
      ],
      "stateMutability": "nonpayable",
      "type": "constructor"
    },
    {
      "inputs": [],
      "name": "AccessControlBadConfirmation",
      "type": "error"
    },
    {
      "inputs": [
        {
          "internalType": "address",
          "name": "account",
          "type": "address"
        },
        {
          "internalType": "bytes32",
          "name": "neededRole",
          "type": "bytes32"
        }
      ],
      "name": "AccessControlUnauthorizedAccount",
      "type": "error"
    },
    {
      "inputs": [],
      "name": "MissingImage",
      "type": "error"
    },
    {
      "anonymous": false,
      "inputs": [
        {
          "indexed": false,
          "internalType": "string",
          "name": "oldGateway",
          "type": "string"
        },
        {
          "indexed": false,
          "internalType": "string",
          "name": "newGateway",
          "type": "string"
        }
      ],
      "name": "IpfsGatewayUpdated",
      "type": "event"
    },
    {
      "anonymous": false,
      "inputs": [
        {
          "indexed": true,
          "internalType": "bytes32",
          "name": "role",
          "type": "bytes32"
        },
        {
          "indexed": true,
          "internalType": "bytes32",
          "name": "previousAdminRole",
          "type": "bytes32"
        },
        {
          "indexed": true,
          "internalType": "bytes32",
          "name": "newAdminRole",
          "type": "bytes32"
        }
      ],
      "name": "RoleAdminChanged",
      "type": "event"
    },
    {
      "anonymous": false,
      "inputs": [
        {
          "indexed": true,
          "internalType": "bytes32",
          "name": "role",
          "type": "bytes32"
        },
        {
          "indexed": true,
          "internalType": "address",
          "name": "account",
          "type": "address"
        },
        {
          "indexed": true,
          "internalType": "address",
          "name": "sender",
          "type": "address"
        }
      ],
      "name": "RoleGranted",
      "type": "event"
    },
    {
      "anonymous": false,
      "inputs": [
        {
          "indexed": true,
          "internalType": "bytes32",
          "name": "role",
          "type": "bytes32"
        },
        {
          "indexed": true,
          "internalType": "address",
          "name": "account",
          "type": "address"
        },
        {
          "indexed": true,
          "internalType": "address",
          "name": "sender",
          "type": "address"
        }
      ],
      "name": "RoleRevoked",
      "type": "event"
    },
    {
      "inputs": [],
      "name": "DEFAULT_ADMIN_ROLE",
      "outputs": [
        {
          "internalType": "bytes32",
          "name": "",
          "type": "bytes32"
        }
      ],
      "stateMutability": "view",
      "type": "function"
    },
    {
      "inputs": [
        {
          "internalType": "address",
          "name": "vault",
          "type": "address"
        },
        {
          "internalType": "uint256",
          "name": "tokenId",
          "type": "uint256"
        }
      ],
      "name": "buildTokenURI",
      "outputs": [
        {
          "internalType": "string",
          "name": "",
          "type": "string"
        }
      ],
      "stateMutability": "view",
      "type": "function"
    },
    {
      "inputs": [
        {
          "internalType": "bytes32",
          "name": "role",
          "type": "bytes32"
        }
      ],
      "name": "getRoleAdmin",
      "outputs": [
        {
          "internalType": "bytes32",
          "name": "",
          "type": "bytes32"
        }
      ],
      "stateMutability": "view",
      "type": "function"
    },
    {
      "inputs": [
        {
          "internalType": "bytes32",
          "name": "role",
          "type": "bytes32"
        },
        {
          "internalType": "address",
          "name": "account",
          "type": "address"
        }
      ],
      "name": "grantRole",
      "outputs": [],
      "stateMutability": "nonpayable",
      "type": "function"
    },
    {
      "inputs": [
        {
          "internalType": "bytes32",
          "name": "role",
          "type": "bytes32"
        },
        {
          "internalType": "address",
          "name": "account",
          "type": "address"
        }
      ],
      "name": "hasRole",
      "outputs": [
        {
          "internalType": "bool",
          "name": "",
          "type": "bool"
        }
      ],
      "stateMutability": "view",
      "type": "function"
    },
    {
      "inputs": [
        {
          "internalType": "bytes32",
          "name": "role",
          "type": "bytes32"
        },
        {
          "internalType": "address",
          "name": "callerConfirmation",
          "type": "address"
        }
      ],
      "name": "renounceRole",
      "outputs": [],
      "stateMutability": "nonpayable",
      "type": "function"
    },
    {
      "inputs": [
        {
          "internalType": "bytes32",
          "name": "role",
          "type": "bytes32"
        },
        {
          "internalType": "address",
          "name": "account",
          "type": "address"
        }
      ],
      "name": "revokeRole",
      "outputs": [],
      "stateMutability": "nonpayable",
      "type": "function"
    },
    {
      "inputs": [
        {
          "internalType": "bytes4",
          "name": "interfaceId",
          "type": "bytes4"
        }
      ],
      "name": "supportsInterface",
      "outputs": [
        {
          "internalType": "bool",
          "name": "",
          "type": "bool"
        }
      ],
      "stateMutability": "view",
      "type": "function"
    },
    {
      "inputs": [
        {
          "internalType": "string",
          "name": "ipfsGateway",
          "type": "string"
        }
      ],
      "name": "updateIpfsGateway",
      "outputs": [],
      "stateMutability": "nonpayable",
      "type": "function"
    }
  ],
  "bytecode": "0x608060405234610229576112ea803803806100198161022e565b928339810190602081830312610229578051906001600160401b038211610229570181601f82011215610229578051906001600160401b0382116101fe5761006a601f8301601f191660200161022e565b92828452602083830101116102295760005b82811061021457600083850160200152835184906001600160401b0381116101fe57600154600181811c911680156101f4575b60208210146101de57601f8111610179575b50602091601f82116001146101155791819260009261010a575b50508160011b916000199060031b1c1916176001555b6100fa33610253565b50604051610fe890816102e28239f35b0151905082806100db565b601f198216926001600052806000209160005b85811061016157508360019510610148575b505050811b016001556100f1565b015160001960f88460031b161c1916905582808061013a565b91926020600181928685015181550194019201610128565b60016000527fb10e2d527612073b26eecdfd717e6a320cf44b4afac2b0732d9fcbe2b7fa0cf6601f830160051c810191602084106101d4575b601f0160051c01905b8181106101c857506100c1565b600081556001016101bb565b90915081906101b2565b634e487b7160e01b600052602260045260246000fd5b90607f16906100af565b634e487b7160e01b600052604160045260246000fd5b8060208092840101518282870101520161007c565b600080fd5b6040519190601f01601f191682016001600160401b038111838210176101fe57604052565b6001600160a01b03811660009081526000805160206112ca833981519152602052604090205460ff166102db576001600160a01b031660008181526000805160206112ca83398151915260205260408120805460ff191660011790553391907f2f8788117e7eff1d82e926ec794901d17c78024a50270940304540a733656f0d8180a4600190565b5060009056fe608080604052600436101561001357600080fd5b60003560e01c90816301ffc9a71461098f57508063248a9ca31461095a5780632f2ff15d1461091a57806336568abe146108bb578063790587d11461053957806391d14854146104eb578063a217fddf146104cf578063b25457d3146100ce5763d547741f1461008257600080fd5b346100c95760403660031901126100c9576100c76004356100a1610a2d565b906100c26100bd82600052600060205260016040600020015490565b610b65565b610c46565b005b600080fd5b346100c95760403660031901126100c9576004356001600160a01b0381168091036100c9576040517f06fdde03000000000000000000000000000000000000000000000000000000008152600081600481855afa80156104c35761013a916000916104a8575b50610d21565b6040906004600061017f84516101508682610a43565b601a81527f4b65797320746f20636f6c6c61746572616c207661756c74732e0000000000006020820152610d21565b948451928380927ff3ccaac00000000000000000000000000000000000000000000000000000000082525afa90811561049d5760009161047a575b5080511561045057825160208101916000906001546101d881610ac9565b906001811690811561043657506001146103dc575b506103729460126103d8989585610227610311976020886102188960029b600d9b5194859201610a81565b0103601f198101835282610a43565b6102da60298b51998a967f7b226e616d65223a220000000000000000000000000000000000000000000000602089015261026a815180926020868c019101610a81565b87017f222c20226465736372697074696f6e223a220000000000000000000000000000838201526102a5825180936020603b85019101610a81565b0101917f222c2022696d616765223a20220000000000000000000000000000000000000085840152518093601f840190610a81565b01017f227d000000000000000000000000000000000000000000000000000000000000838201520301601d19810184520182610a43565b82519061031f606083610a43565b8382527f4142434445464748494a4b4c4d4e4f505152535455565758595a61626364656660208301527f6768696a6b6c6d6e6f707172737475767778797a303132333435363738392b2f84830152610e7d565b906103c6603d825180947f646174613a6170706c69636174696f6e2f6a736f6e3b6261736536342c00000060208301526103b58151809260208686019101610a81565b81010301601f198101845283610a43565b51918291602083526020830190610aa4565b0390f35b90915060016000527fb10e2d527612073b26eecdfd717e6a320cf44b4afac2b0732d9fcbe2b7fa0cf66000905b8282106104205750508201602001906103726101ed565b6001816020925483858901015201910190610409565b60ff191686525080151502830160200191506103726101ed565b7fe63c74850000000000000000000000000000000000000000000000000000000060005260046000fd5b61049791503d806000833e61048f8183610a43565b810190610b03565b846101ba565b83513d6000823e3d90fd5b6104bd91503d806000833e61048f8183610a43565b83610134565b6040513d6000823e3d90fd5b346100c95760003660031901126100c957602060405160008152f35b346100c95760403660031901126100c957610504610a2d565b60043560005260006020526001600160a01b0360406000209116600052602052602060ff604060002054166040519015158152f35b346100c95760203660031901126100c95760043567ffffffffffffffff81116100c957366023820112156100c957806004013561057581610a65565b916105836040519384610a43565b81835236602483830101116100c9578160009260246020930183860137830101523360009081527fad3228b676f7d3cd4284a5443f17f1962b36e491b30a40b2405849e597ba5fb5602052604090205460ff16156108a157604051600154916000826105ee85610ac9565b8082529160018616801561088357600114610822575b61061092500383610a43565b80519267ffffffffffffffff841161080c5761062b90610ac9565b601f8111610769575b50602092601f81116001146106be576106a09291816106ae927fb1f08c04a81b948cfc13e9206a63c4f8233d4173b2a28c555148262fb37fbb22966000916106b3575b508160011b916000199060031b1c1916176001555b604051938493604085526040850190610aa4565b908382036020850152610aa4565b0390a1005b905082015187610677565b601f19811660016000527fb10e2d527612073b26eecdfd717e6a320cf44b4afac2b0732d9fcbe2b7fa0cf69060005b8181106107515750826106a09594927fb1f08c04a81b948cfc13e9206a63c4f8233d4173b2a28c555148262fb37fbb22976106ae9560019410610738575b5050811b0160015561068c565b84015160001960f88460031b161c19169055878061072b565b848701518355602096870196600190930192016106ed565b6001600052601f840160051c7fb10e2d527612073b26eecdfd717e6a320cf44b4afac2b0732d9fcbe2b7fa0cf60190602085106107e4575b601f0160051c7fb10e2d527612073b26eecdfd717e6a320cf44b4afac2b0732d9fcbe2b7fa0cf601905b8181106107d85750610634565b600081556001016107cb565b7fb10e2d527612073b26eecdfd717e6a320cf44b4afac2b0732d9fcbe2b7fa0cf691506107a1565b634e487b7160e01b600052604160045260246000fd5b509060016000527fb10e2d527612073b26eecdfd717e6a320cf44b4afac2b0732d9fcbe2b7fa0cf6906000915b81831061086757505090602061061092820101610604565b602091935080600191548385890101520191019091849261084f565b505060206106109260ff19871682840152151560051b820101610604565b63e2517d3f60e01b60005233600452600060245260446000fd5b346100c95760403660031901126100c9576108d4610a2d565b336001600160a01b038216036108f0576100c790600435610c46565b7f6697b2320000000000000000000000000000000000000000000000000000000060005260046000fd5b346100c95760403660031901126100c9576100c7600435610939610a2d565b906109556100bd82600052600060205260016040600020015490565b610bac565b346100c95760203660031901126100c9576020610987600435600052600060205260016040600020015490565b604051908152f35b346100c95760203660031901126100c957600435907fffffffff0000000000000000000000000000000000000000000000000000000082168092036100c957817f7965db0b0000000000000000000000000000000000000000000000000000000060209314908115610a03575b5015158152f35b7f01ffc9a700000000000000000000000000000000000000000000000000000000915014836109fc565b602435906001600160a01b03821682036100c957565b90601f8019910116810190811067ffffffffffffffff82111761080c57604052565b67ffffffffffffffff811161080c57601f01601f191660200190565b60005b838110610a945750506000910152565b8181015183820152602001610a84565b90602091610abd81518092818552858086019101610a81565b601f01601f1916010190565b90600182811c92168015610af9575b6020831014610ae357565b634e487b7160e01b600052602260045260246000fd5b91607f1691610ad8565b6020818303126100c95780519067ffffffffffffffff82116100c9570181601f820112156100c9578051610b3681610a65565b92610b446040519485610a43565b818452602082840101116100c957610b629160208085019101610a81565b90565b80600052600060205260406000206001600160a01b03331660005260205260ff6040600020541615610b945750565b63e2517d3f60e01b6000523360045260245260446000fd5b80600052600060205260406000206001600160a01b03831660005260205260ff6040600020541615600014610c3f5780600052600060205260406000206001600160a01b0383166000526020526040600020600160ff198254161790556001600160a01b03339216907f2f8788117e7eff1d82e926ec794901d17c78024a50270940304540a733656f0d600080a4600190565b5050600090565b80600052600060205260406000206001600160a01b03831660005260205260ff60406000205416600014610c3f5780600052600060205260406000206001600160a01b038316600052602052604060002060ff1981541690556001600160a01b03339216907ff6391f5c32d9c69d2a47ea670b442974b53935d1edc7fd64eb21e047a839171b600080a4600190565b908151811015610ce6570160200190565b634e487b7160e01b600052603260045260246000fd5b6000198114610d0b5760010190565b634e487b7160e01b600052601160045260246000fd5b906000805b8351811015610d8357601160f91b7fff00000000000000000000000000000000000000000000000000000000000000610d5f8387610cd5565b511614610d6f575b600101610d26565b90610d7b600191610cfc565b919050610d67565b5080610d8c5750565b8251908101809111610d0b57610da181610a65565b90610daf6040519283610a43565b808252610dbe601f1991610a65565b0136602083013760009260005b8151811015610e765780601160f91b7fff00000000000000000000000000000000000000000000000000000000000000610e0760019486610cd5565b511614610e5b575b7fff00000000000000000000000000000000000000000000000000000000000000610e3a8285610cd5565b511695610e54610e4982610cfc565b9760001a9186610cd5565b5301610dcb565b605c610e70610e6988610cfc565b9786610cd5565b53610e0f565b5090925050565b919091805115610f9a57805160028101809111610d0b5760039004908160021b917f3fffffffffffffffffffffffffffffffffffffffffffffffffffffffffffffff811603610d0b57610ee8610ed283610a65565b92610ee06040519485610a43565b808452610a65565b6020830190601f1901368237908081518201956020870190815192600083525b888110610f4c5750506003939495965052510680600114610f3957600214610f2e575090565b603d90600019015390565b50603d9081600019820153600119015390565b600360049199969901986001603f8b5182828260121c16870101518453828282600c1c16870101518385015382828260061c1687010151600285015316840101516003820153019497610f08565b509050604051610fab602082610a43565b600081529056fea264697066735822122099805460682c6b88ac4f7f2a6882c07cac1a021e18a375318ab6dc1c0e7edb0064736f6c634300081c0033ad3228b676f7d3cd4284a5443f17f1962b36e491b30a40b2405849e597ba5fb5",
  "linkReferences": {},
  "deployedLinkReferences": {}
}