{
  "_format": "hh-sol-artifact-1",
  "contractName": "CollateralRewardPoolFactory",
  "sourceName": "contracts/CollateralRewardPoolFactory.sol",
  "abi": [
    {
      "inputs": [
        {
          "internalType": "address",
          "name": "_controllerAddress",
          "type": "address"
        },
        {
          "internalType": "address",
          "name": "_protocolTokenAddress",
          "type": "address"
        }
      ],
      "stateMutability": "nonpayable",
      "type": "constructor"
    },
    {
      "inputs": [],
      "name": "AlreadyCreatedRewardPool",
      "type": "error"
    },
    {
      "anonymous": false,
      "inputs": [
        {
          "indexed": false,
          "internalType": "address",
          "name": "rewardPool",
          "type": "address"
        }
      ],
      "name": "RewardPoolCreated",
      "type": "event"
    },
    {
      "inputs": [],
      "name": "controller",
      "outputs": [
        {
          "internalType": "address",
          "name": "",
          "type": "address"
        }
      ],
      "stateMutability": "view",
      "type": "function"
    },
    {
      "inputs": [
        {
          "internalType": "uint256",
          "name": "_lifetimeVaultAmount",
          "type": "uint256"
        }
      ],
      "name": "createRewardPool",
      "outputs": [],
      "stateMutability": "nonpayable",
      "type": "function"
    },
    {
      "inputs": [],
      "name": "protocolTokenAddress",
      "outputs": [
        {
          "internalType": "contract IERC20",
          "name": "",
          "type": "address"
        }
      ],
      "stateMutability": "view",
      "type": "function"
    }
  ],
  "bytecode": "0x608034608657601f61548d38819003918201601f19168301916001600160401b03831184841017608b578084926040948552833981010312608657604b602060458360a1565b920160a1565b600080546001600160a01b039384166001600160a01b031991821617909155600180549290931691161790556040516153d890816100b58239f35b600080fd5b634e487b7160e01b600052604160045260246000fd5b51906001600160a01b038216820360865756fe608080604052600436101561001357600080fd5b600090813560e01c9081636fa157031461009157508063f706b1f21461006a5763f77c47911461004257600080fd5b346100675780600319360112610067576001600160a01b036020915416604051908152f35b80fd5b503461006757806003193601126100675760206001600160a01b0360015416604051908152f35b9050346102dd5760203660031901126102dd57600435908281602481836001600160a01b038154167f0a9ab83f0000000000000000000000000000000000000000000000000000000083523360048401525af190811561033957839161039e575b5051610376576001600160a01b038254166001600160a01b03600154169060405191614efd918284019284841067ffffffffffffffff85111761036257916060939185936104a685393383526020830152604082015203019083f080156102e1576001600160a01b031690813b1561032d576040517fe96178ec000000000000000000000000000000000000000000000000000000008152816004820152838160248183875af1801561035757610344575b506020839160646001600160a01b03600154169160405194859384927f23b872dd00000000000000000000000000000000000000000000000000000000845233600485015288602485015260448401525af1801561033957610301575b50803b156102dd57816040517fb7f912c5000000000000000000000000000000000000000000000000000000008152818160048183875af180156102e1576102ec575b506001600160a01b03815416803b156102dd578180916024604051809481937f851e8d070000000000000000000000000000000000000000000000000000000083528860048401525af180156102e1576102c8575b507f279f89fcb2c11afc4b2dac3b5e383fbd642243bb39fddd7c34dada03713b1fbb602083604051908152a180f35b816102d29161046d565b6102dd578138610299565b5080fd5b6040513d84823e3d90fd5b816102f69161046d565b6102dd578138610244565b6020813d602011610331575b8161031a6020938361046d565b8101031261032d57518015158114610201575b8280fd5b3d915061030d565b6040513d85823e3d90fd5b926103518160209561046d565b926101a4565b6040513d86823e3d90fd5b602487634e487b7160e01b81526041600452fd5b6004827f47f16085000000000000000000000000000000000000000000000000000000008152fd5b90503d8084833e6103af818361046d565b8101906020818303126104655780519067ffffffffffffffff8211610469570181601f820112156104655780519167ffffffffffffffff8311610451578260051b9160405193610402602085018661046d565b845260208085019382010191821161044d57602001915b81831061042957505050386100f2565b82516001600160a01b038116810361044957815260209283019201610419565b8680fd5b8580fd5b602485634e487b7160e01b81526041600452fd5b8380fd5b8480fd5b90601f8019910116810190811067ffffffffffffffff82111761048f57604052565b634e487b7160e01b600052604160045260246000fdfe60803461010b57601f614efd38819003918201601f19168301916001600160401b038311848410176101105780849260609460405283398101031261010b5761004781610126565b90610060604061005960208401610126565b9201610126565b6001600160a01b039092169182156100f557600080546001600160a01b031981168517825560405194916001600160a01b03909116907f8be0079c531659141344cd1fd0a4f28419497f9722a3daafe3b4186f6b6457e09080a3600280546001600160a01b039283166001600160a01b03199182161790915560038054939092169216919091179055614dc2908161013b8239f35b631e4fbdf760e01b600052600060045260246000fd5b600080fd5b634e487b7160e01b600052604160045260246000fd5b51906001600160a01b038216820361010b5756fe608080604052600436101561001357600080fd5b600090813560e01c9081630156806a146112445750806302d05d3f146109e75780631a465fe11461121d578063246f145714610ebc5780634c9b6f6014610e845780634cd1857714610e66578063515ce51714610d6e578063559ad9d614610d365780635e859ea414610d135780636130891e14610cec578063652b9b4114610caf578063715018a614610c4957806377f3e5d614610a0d5780638da5cb5b146109e75780639094a91e146109a4578063b5f4d38c146108a5578063b7f912c5146106d3578063d83e8e4514610375578063e96178ec146101dc578063f2fde38b146101315763f77c47911461010857600080fd5b3461012e578060031936011261012e5760206001600160a01b0360035416604051908152f35b80fd5b503461012e57602036600319011261012e576001600160a01b03610153611304565b61015b6114ce565b1680156101b0576001600160a01b0382548273ffffffffffffffffffffffffffffffffffffffff198216178455167f8be0079c531659141344cd1fd0a4f28419497f9722a3daafe3b4186f6b6457e08380a380f35b6024827f1e4fbdf700000000000000000000000000000000000000000000000000000000815280600452fd5b503461012e57602036600319011261012e576004356001600160a01b036004541661034d57606481028181046064148215171561033957906064606661022461022c94611565565b040490611427565b6001600160a01b038254166001600160a01b0360025416604051926108f5928385019385851067ffffffffffffffff8611176103255791859391608095936117da863983523060208401526040830152606082015203019082f08015610318576001600160a01b036102bd91168073ffffffffffffffffffffffffffffffffffffffff196004541617600455611441565b6001600160a01b03600454168152600560205260408120600160ff198254161790557f2e49a5810fda2439a23771848b4acec786b0a64d4de3d124ac57fc8739c3887560206001600160a01b0360045416604051908152a180f35b50604051903d90823e3d90fd5b602487634e487b7160e01b81526041600452fd5b602483634e487b7160e01b81526011600452fd5b6004827f0c050441000000000000000000000000000000000000000000000000000000008152fd5b503461012e5760e036600319011261012e5760043567ffffffffffffffff81116105fe576103a7903690600401611297565b60243567ffffffffffffffff81116106cf576103c7903690600401611297565b604435606435926103d66112ee565b9360a4359060028210156106cb576103ec6114ce565b6001600160a01b036004541680156106bc5760206004916040519283809263c52aa2cf60e01b82525afa9081156106b1578891610692575b50156106835760c43590603c420180421161066f57851061066057876001600160a01b038060025416981692888414610659575b6064610465602092611565565b04986064604051809481936323b872dd60e01b83523360048401523060248401528d60448401525af1801561064e57610621575b506104a38761157b565b60405195612cbe948588019588871067ffffffffffffffff88111761060d57926104fe8b96936104f061016097948c9b9a976120cf8d393388526101806020890152610180880190611510565b908682036040880152611510565b96606085015260808401523060a084015260c083015260e08201528261010082015282610120820152826101408201520152039083f08015610602576001600160a01b03169061054d82611441565b818352600560205260408320600160ff19825416179055818352600760205261057b60408420918254611434565b9055816001600160a01b0360035416803b156105fe578180916024604051809481936312554c7760e11b83528860048401525af18015610602576105e9575b507f2e49a5810fda2439a23771848b4acec786b0a64d4de3d124ac57fc8739c38875602083604051908152a180f35b816105f39161125f565b6105fe5781386105ba565b5080fd5b6040513d84823e3d90fd5b60248b634e487b7160e01b81526041600452fd5b6106429060203d602011610647575b61063a818361125f565b81019061134b565b610499565b503d610630565b6040513d8b823e3d90fd5b5081610458565b60048863bd41e91760e01b8152fd5b602489634e487b7160e01b81526011600452fd5b600487638fd1587d60e01b8152fd5b6106ab915060203d6020116106475761063a818361125f565b38610424565b6040513d8a823e3d90fd5b60048863156c7fdd60e11b8152fd5b8680fd5b8280fd5b503461012e578060031936011261012e576001600160a01b0360045416801561089657604051907f52188f09000000000000000000000000000000000000000000000000000000008252602082600481845afa91821561085157839261085c575b506002546040517f095ea7b30000000000000000000000000000000000000000000000000000000081526001600160a01b0392831660048201526024810184905291602091839160449183918891165af1801561085157610834575b50816001600160a01b0360045416803b156105fe578180916004604051809481937fd0e30db00000000000000000000000000000000000000000000000000000000083525af180156106025761081f575b506107f261081c9260649250611565565b046001600160a01b03600454168352600760205260408320610815828254611434565b905561157b565b80f35b816108299161125f565b6105fe5781386107e1565b61084c9060203d6020116106475761063a818361125f565b610790565b6040513d85823e3d90fd5b9091506020813d60201161088e575b816108786020938361125f565b810103126108895751906020610734565b600080fd5b3d915061086b565b60048263156c7fdd60e11b8152fd5b503461012e578060031936011261012e57338152600560205260ff6040822054161561099557600460206001600160a01b038254166040519283809263c52aa2cf60e01b82525afa908115610602578291610976575b50156109675733815260066020527f67c7aa1ef9dbf8081996d7391bf5dc8fb772decabf5ea08418509004fc4ca3e2610961604083205433845260066020528360408120556109498161157b565b60408051338152602081019290925290918291820190565b0390a180f35b80638fd1587d60e01b60049252fd5b61098f915060203d6020116106475761063a818361125f565b386108fb565b8063edd7338f60e01b60049252fd5b503461012e57602036600319011261012e576004359060015482101561012e5760206001600160a01b036109d78461131a565b90549060031b1c16604051908152f35b503461012e578060031936011261012e576001600160a01b036020915416604051908152f35b503461012e578060031936011261012e57610a266114ce565b6001600160a01b036004541680156108965760206004916040519283809263c52aa2cf60e01b82525afa908115610602578291610c2a575b50610c025780816001545b808210610bc75750506001600160a01b036002541690604051907f70a08231000000000000000000000000000000000000000000000000000000008252306004830152602082602481865afa8015610bbc578490610b88575b610acc9250611427565b908115610b6057825460405163a9059cbb60e01b81526001600160a01b0390911660048201526024810183905291906020908390604490829087905af1908115610851577feffbb580bae70a79b8ada6efa0833e108959b7999d287598c7d4fbae07e7173792602092610b45575b50604051908152a180f35b610b5b90833d85116106475761063a818361125f565b610b3a565b6004837f3294ffd4000000000000000000000000000000000000000000000000000000008152fd5b506020823d602011610bb4575b81610ba26020938361125f565b8101031261088957610acc9151610ac2565b3d9150610b95565b6040513d86823e3d90fd5b9091610bfa6001916001600160a01b03610be08661131a565b90549060031b1c1686526006602052604086205490611434565b920190610a69565b807f1f8308340000000000000000000000000000000000000000000000000000000060049252fd5b610c43915060203d6020116106475761063a818361125f565b38610a5e565b503461012e578060031936011261012e57610c626114ce565b806001600160a01b03815473ffffffffffffffffffffffffffffffffffffffff1981168355167f8be0079c531659141344cd1fd0a4f28419497f9722a3daafe3b4186f6b6457e08280a380f35b503461012e57602036600319011261012e5760ff60406020926001600160a01b03610cd8611304565b168152600584522054166040519015158152f35b503461012e578060031936011261012e5760206001600160a01b0360045416604051908152f35b503461012e578060031936011261012e576020610d2e611388565b604051908152f35b503461012e57602036600319011261012e5760406020916001600160a01b03610d5d611304565b168152600683522054604051908152f35b503461012e57602036600319011261012e57610d88611304565b338252600560205260ff60408320541615610e57573380835260066020818152604080862054938652918152818520859055600254915163a9059cbb60e01b81526001600160a01b03948516600482015260248101849052939091849160449183918891165af1908115610851577f121c5042302bae5fc561fbc64368f297ca60a880878e1e3a7f7e9380377260bf9261096192610e3a575b5060408051338152602081019290925290918291820190565b610e529060203d6020116106475761063a818361125f565b610e21565b60048263edd7338f60e01b8152fd5b503461012e578060031936011261012e576020600154604051908152f35b503461012e57602036600319011261012e5760406020916001600160a01b03610eab611304565b168152600783522054604051908152f35b503461012e5761016036600319011261012e5760043567ffffffffffffffff81116105fe57610eef903690600401611297565b60243567ffffffffffffffff81116106cf57610f0f903690600401611297565b604435606435610f1d6112ee565b9360a43560028110156106cb5761014435926001600160a01b03841680940361121957610f486114ce565b6001600160a01b0360045416801561120a5760206004916040519283809263c52aa2cf60e01b82525afa90811561064e5789916111eb575b50156111dc5760c43590603c42018042116111c85786106111b957886001600160a01b0380600254169916928984146111b2575b6064610fc1602092611565565b049960648b60405194859384926323b872dd60e01b845233600485015230602485015260448401525af180156111a75761118a575b506110008861157b565b60405196612cbe948589019589871067ffffffffffffffff881117611176578998979694926104f061016097959361104d936120cf8d393388526101806020890152610180880190611510565b96606085015260808401523060a084015260c083015260e082015260e43561010082015261010435610120820152610124356101408201520152039083f08015610602576001600160a01b0316906110a482611441565b818352600560205260408320600160ff1982541617905581835260076020526110d260408420918254611434565b9055816001600160a01b0360035416803b156105fe5781906024604051809481936312554c7760e11b83528760048401525af180156108515761113f575b5060207f2e49a5810fda2439a23771848b4acec786b0a64d4de3d124ac57fc8739c3887591604051908152a180f35b8261116e7f2e49a5810fda2439a23771848b4acec786b0a64d4de3d124ac57fc8739c38875939460209361125f565b929150611110565b60248c634e487b7160e01b81526041600452fd5b6111a29060203d6020116106475761063a818361125f565b610ff6565b6040513d8c823e3d90fd5b5081610fb4565b60048963bd41e91760e01b8152fd5b60248a634e487b7160e01b81526011600452fd5b600488638fd1587d60e01b8152fd5b611204915060203d6020116106475761063a818361125f565b38610f80565b60048963156c7fdd60e11b8152fd5b8780fd5b503461012e578060031936011261012e5760206001600160a01b0360025416604051908152f35b9050346105fe57816003193601126105fe5780600260209252f35b90601f8019910116810190811067ffffffffffffffff82111761128157604052565b634e487b7160e01b600052604160045260246000fd5b81601f820112156108895780359067ffffffffffffffff821161128157604051926112cc601f8401601f19166020018561125f565b8284526020838301011161088957816000926020809301838601378301015290565b608435906001600160a01b038216820361088957565b600435906001600160a01b038216820361088957565b60015481101561133557600160005260206000200190600090565b634e487b7160e01b600052603260045260246000fd5b90816020910312610889575180151581036108895790565b60001981146113725760010190565b634e487b7160e01b600052601160045260246000fd5b600080600154905b81811061139c57505090565b600460206001600160a01b036113b18461131a565b90549060031b1c166040519283809263c52aa2cf60e01b82525afa90811561141b576000916113fd575b506113e9575b600101611390565b916113f5600191611363565b9290506113e1565b611415915060203d81116106475761063a818361125f565b386113db565b6040513d6000823e3d90fd5b9190820391821161137257565b9190820180921161137257565b60015468010000000000000000811015611281576001810160015560006001548210156114ba57600190527fb10e2d527612073b26eecdfd717e6a320cf44b4afac2b0732d9fcbe2b7fa0cf601805473ffffffffffffffffffffffffffffffffffffffff19166001600160a01b03909216919091179055565b80634e487b7160e01b602492526032600452fd5b6001600160a01b036000541633036114e257565b7f118cdaa7000000000000000000000000000000000000000000000000000000006000523360045260246000fd5b919082519283825260005b84811061153c575050826000602080949584010152601f8019910116010190565b8060208092840101518282860101520161151b565b80518210156113355760209160051b010190565b908160011b918083046002149015171561137257565b60015460009291835b82811061173357508315938461172c5761159c611388565b926115a6846117c1565b936115b4604051958661125f565b8085526115c3601f19916117c1565b0136602086013760009060005b8181106116a257505050819260005b8151811015611699576001600160a01b036115fa8284611551565b511694856000526007602052604060002054808602908682041486151715611372576000896116855750908460019392049081158061167c575b611674575b80821161166c575b8161164b91611427565b9660005260066020526116646040600020918254611434565b9055016115df565b905080611641565b839150611639565b50801515611634565b80634e487b7160e01b602492526012600452fd5b50505050509050565b6001600160a01b036116b38261131a565b90549060031b1c1660405163c52aa2cf60e01b8152602081600481855afa90811561141b5760009161170e575b506116ef575b506001016115d0565b8361170791611701600194968a611551565b52611363565b92906116e6565b611726915060203d81116106475761063a818361125f565b386116e0565b5050509050565b6001600160a01b036117448261131a565b90549060031b1c1660405163c52aa2cf60e01b8152602081600481855afa90811561141b576000916117a3575b50611780575b50600101611584565b6001919561179c91600052600760205260406000205490611434565b9490611777565b6117bb915060203d81116106475761063a818361125f565b38611771565b67ffffffffffffffff81116112815760051b6020019056fe60803461011757601f6108f538819003918201601f19168301916001600160401b0383118484101761011c578084926080946040528339810103126101175761004781610132565b61005360208301610132565b91610065606060408301519201610132565b916001600160a01b03169081156101015760005490604051948360018060a01b0384167f8be0079c531659141344cd1fd0a4f28419497f9722a3daafe3b4186f6b6457e0600080a3600280546001600160a01b03199081166001600160a01b03938416179091556001929092556001600160b01b031992909216929092176000556003805490921692169190911790556107ae90816101478239f35b631e4fbdf760e01b600052600060045260246000fd5b600080fd5b634e487b7160e01b600052604160045260246000fd5b51906001600160a01b03821682036101175756fe608080604052600436101561001357600080fd5b600090813560e01c9081631a465fe1146106bc575080633ccfd60b1461042157806344aa5700146103fc57806352188f09146103de57806366666aa9146103b7578063715018a6146103515780638da5cb5b1461032b578063c52aa2cf146102ee578063c52f2e08146102c9578063d0e30db01461014c5763f2fde38b1461009a57600080fd5b34610149576020366003190112610149576004356001600160a01b038116809103610147576100c761074f565b801561011b576001600160a01b0382548273ffffffffffffffffffffffffffffffffffffffff198216178455167f8be0079c531659141344cd1fd0a4f28419497f9722a3daafe3b4186f6b6457e08380a380f35b6024827f1e4fbdf700000000000000000000000000000000000000000000000000000000815280600452fd5b505b80fd5b50346101495780600319360112610149576001600160a01b036002541633036102b65760ff815460a01c1661028e578060206001600160a01b0360035416606460015460405194859384927f23b872dd00000000000000000000000000000000000000000000000000000000845233600485015230602485015260448401525af1801561028357610256575b5080547fffffffffffffffffffffff00ffffffffffffffffffffffffffffffffffffffff16740100000000000000000000000000000000000000001781556001546040805133815260208101929092527f2da466a7b24304f47e87fa2e1e5a81b9831ce54fec19055ce277ca2f39ba42c49190819081015b0390a180f35b6102779060203d60201161027c575b61026f81836106e1565b810190610732565b6101d8565b503d610265565b6040513d84823e3d90fd5b807fd5a821150000000000000000000000000000000000000000000000000000000060049252fd5b8063118cdaa760e01b6024925233600452fd5b503461014957806003193601126101495760ff6020915460a01c166040519015158152f35b50346101495780600319360112610149576020905460ff8160a01c16908161031c575b506040519015158152f35b60ff915060a81c161538610311565b50346101495780600319360112610149576001600160a01b036020915416604051908152f35b503461014957806003193601126101495761036a61074f565b806001600160a01b03815473ffffffffffffffffffffffffffffffffffffffff1981168355167f8be0079c531659141344cd1fd0a4f28419497f9722a3daafe3b4186f6b6457e08280a380f35b503461014957806003193601126101495760206001600160a01b0360025416604051908152f35b50346101495780600319360112610149576020600154604051908152f35b503461014957806003193601126101495760ff6020915460a81c166040519015158152f35b503461014957806003193601126101495761043a61074f565b805460ff8160a01c16156106945760a81c60ff1661066c57600460206001600160a01b0360025416604051928380927f5e859ea40000000000000000000000000000000000000000000000000000000082525afa8015610283578290610639575b6001915003610611576003546001546040517fa9059cbb0000000000000000000000000000000000000000000000000000000081523360048201526024810191909152906020908290604490829086906001600160a01b03165af18015610283576105f4575b50806001600160a01b0360025416803b156105f1578180916024604051809581937f515ce5170000000000000000000000000000000000000000000000000000000083523360048401525af180156105e4576105d4575b80547fffffffffffffffffffff00ffffffffffffffffffffffffffffffffffffffffff1675010000000000000000000000000000000000000000001781556001546040805133815260208101929092527f7084f5476618d8e60b11ef0d7d3f06914655adb8793e28ff7f018d4c76d505d5919081908101610250565b6105dd916106e1565b3881610558565b50604051903d90823e3d90fd5b50fd5b61060c9060203d60201161027c5761026f81836106e1565b610501565b807f1addf0000000000000000000000000000000000000000000000000000000000060049252fd5b506020813d602011610664575b81610653602093836106e1565b81010312610147576001905161049b565b3d9150610646565b807f6507689f0000000000000000000000000000000000000000000000000000000060049252fd5b6004827f92a27daf000000000000000000000000000000000000000000000000000000008152fd5b9050346101475781600319360112610147576020906001600160a01b03600354168152f35b90601f8019910116810190811067ffffffffffffffff82111761070357604052565b7f4e487b7100000000000000000000000000000000000000000000000000000000600052604160045260246000fd5b9081602091031261074a5751801515810361074a5790565b600080fd5b6001600160a01b0360005416330361076357565b63118cdaa760e01b6000523360045260246000fdfea264697066735822122066f98e92f38ae071a035ecbf7aeee56e322d20781351cab873f1da17ce17265864736f6c634300081c00336101006040523461084f57612cbe8038038061001a81610854565b9283398101906101808183031261084f5761003481610879565b60208201516001600160401b03811161084f578361005391840161088d565b604083015190936001600160401b03821161084f5761007391840161088d565b91606081015190608081015161008b60a08301610879565b9261009860c08401610879565b60e084015190600282101561084f5761010085015192610120860151946100c86101606101408901519801610879565b9760409b6100d58d610854565b60048152631b18191960e11b6020820152815190916001600160401b03821161074f5760005490600182811c92168015610845575b602083101461072f5781601f8493116107d6575b50602090601f831160011461077057600092610765575b50508160011b916000199060031b1c1916176000555b8051906001600160401b03821161074f5760015490600182811c92168015610745575b602083101461072f5781601f8493116106bf575b50602090601f83116001146106575760009261064c575b50508160011b916000199060031b1c1916176001555b6006805461ffff19169055600880546001600160a01b0319166001600160a01b03929092169190911790556007556001600955620186a0841161061857620186a086116105de57620186a085116105a3576000906001841480610581575b61057257600a80546001600160a01b0319166001600160a01b038b169081179091558a51909a6001600160401b03821161055e57600c54600181811c91168015610554575b6020821014610540579081601f8493116104d2575b50602090601f831160011461046d578592610462575b50508160011b916000199060031b1c191617600c555b600b55506010805442600f556001600160a81b03191660a093841b60ff60a01b16176001600160a01b0392831617905591905260c09190915260e091909152811661045b57505b60805260018115918215915b60038111156103445784516123c590816108f98239608051818181610a1c01528181611b86015261203d015260a05181818161040b0152611f9f015260c051818181610b330152611c02015260e0518181816109d90152611a880152f35b836104455760008181526002602052859020546001600160a01b03168015159082908490868461040f575b6103f6575b6000838152600260205289812080546001600160a01b031916841790557fddf252ad1be2c89b69c2b068fc378daa952ba7f163c4a11628f55a4df523b3ef9080a46103e05760001981146103ca576001016102e6565b634e487b7160e01b600052601160045260246000fd5b6339e3563760e11b600052600060045260246000fd5b8160005260036020528860002060018154019055610374565b506000838152600460209081528a822080546001600160a01b03191690558282526003905289902080546000190190558661036f565b633250574960e11b600052600060045260246000fd5b90506102da565b01519050388061027d565b600c86528186209250601f198416865b8181106104ba57509084600195949392106104a1575b505050811b01600c55610293565b015160001960f88460031b161c19169055388080610493565b9293602060018192878601518155019501930161047d565b600c86529091507fdf6966c971051c3d54ec59162606531493a51404a002842f56009d7e5cf4a8c7601f840160051c81019160208510610536575b90601f859493920160051c01905b8181106105285750610267565b86815584935060010161051b565b909150819061050d565b634e487b7160e01b85526022600452602485fd5b90607f1690610252565b634e487b7160e01b84526041600452602484fd5b63e95a9f3d60e01b8252600482fd5b50841580159061059a575b8061020d575086151561020d565b5085151561058c565b60848a868151916375b39eaf60e01b83526004830152600e60448301526d57495448445241575f4541524c5960901b60648301526024820152fd5b60848a878151916375b39eaf60e01b83526004830152600d60448301526c57495448445241575f4c41544560981b60648301526024820152fd5b60848a858151916375b39eaf60e01b83526004830152600760448301526611115413d4d25560ca1b60648301526024820152fd5b015190503880610199565b600160009081528281209350601f198516905b8181106106a7575090846001959493921061068e575b505050811b016001556101af565b015160001960f88460031b161c19169055388080610680565b9293602060018192878601518155019501930161066a565b60016000529091507fb10e2d527612073b26eecdfd717e6a320cf44b4afac2b0732d9fcbe2b7fa0cf6601f840160051c81019160208510610725575b90601f859493920160051c01905b8181106107165750610182565b60008155849350600101610709565b90915081906106fb565b634e487b7160e01b600052602260045260246000fd5b91607f169161016e565b634e487b7160e01b600052604160045260246000fd5b015190503880610135565b60008080528281209350601f198516905b8181106107be57509084600195949392106107a5575b505050811b0160005561014b565b015160001960f88460031b161c19169055388080610797565b92936020600181928786015181550195019301610781565b600080529091507f290decd9548b62a8d60345a988386fc84ba6bc95484008f6362f93160ef3e563601f840160051c8101916020851061083b575b90601f859493920160051c01905b81811061082c575061011e565b6000815584935060010161081f565b9091508190610811565b91607f169161010a565b600080fd5b6040519190601f01601f191682016001600160401b0381118382101761074f57604052565b51906001600160a01b038216820361084f57565b81601f8201121561084f578051906001600160401b03821161074f576108bc601f8301601f1916602001610854565b928284526020838301011161084f5760005b8281106108e357505060206000918301015290565b806020809284010151828287010152016108ce56fe60c080604052600436101561001357600080fd5b60003560e01c90816301ffc9a7146114555750806302d05d3f1461142e57806306fdde0314611412578063081812fc146113d3578063092452c1146113b5578063095ea7b31461129957806311abc6f314610b6d57806323b872dd14610b565780633b3c188214610b1b5780633ccfd60b14610a9057806342842e0e14610a6657806344aa570014610a40578063492fb343146109fc5780634deeabef146109c157806352188f09146109a3578063526e8153146109855780636352211e1461095657806366666aa91461092f57806370a082311461090c57806395d89b411461084e578063a1b0796714610832578063a22cb46514610778578063a58541231461075a578063af95490a1461073e578063b331108614610720578063b88d4fde14610695578063bb3fe0b91461066e578063bd16ba171461064b578063c52aa2cf14610600578063c52f2e08146105dd578063c87b56dd1461042e578063cc1252ae146103f3578063ce0617ec146103d5578063d0e30db014610379578063df0777d61461034e578063e985e9c5146102f1578063f3ccaac0146101e25763f47c84c5146101c157600080fd5b346101dd5760003660031901126101dd57602060405160038152f35b600080fd5b346101dd5760003660031901126101dd576040516000600c548060011c906001811680156102e7575b6020831081146102d3578285529081156102af5750600114610250575b61024c8361023881850382611612565b604051918291602083526020830190611547565b0390f35b600c60009081527fdf6966c971051c3d54ec59162606531493a51404a002842f56009d7e5cf4a8c7939250905b80821061029557509091508101602001610238610228565b91926001816020925483858801015201910190929161027d565b60ff191660208086019190915291151560051b840190910191506102389050610228565b602484634e487b7160e01b81526022600452fd5b91607f169161020b565b346101dd5760403660031901126101dd5761030a61156c565b6001600160a01b0361031a611582565b911660005260056020526001600160a01b0360406000209116600052602052602060ff604060002054166040519015158152f35b346101dd5760003660031901126101dd57602060ff60105460a01c166103776040518092611598565bf35b346101dd5760003660031901126101dd5760ff600654166103ab5761039c612255565b6103a4611f19565b6001600955005b7fd5a821150000000000000000000000000000000000000000000000000000000060005260046000fd5b346101dd5760003660031901126101dd576020600b54604051908152f35b346101dd5760003660031901126101dd5760206040517f00000000000000000000000000000000000000000000000000000000000000008152f35b346101dd5760203660031901126101dd576004803561044c8161221e565b5060206001600160a01b0360085416604051938480927ff77c47910000000000000000000000000000000000000000000000000000000082525afa918215610583576001600160a01b03926020916000916105c0575b506004604051809581937febc1037b000000000000000000000000000000000000000000000000000000008352165afa918215610583576001600160a01b039260009261053492849261058f575b506040517fb25457d3000000000000000000000000000000000000000000000000000000008152306004820152602481019190915293849283919082906044820190565b0392165afa80156105835761024c91600091610560575b50604051918291602083526020830190611547565b61057d91503d806000833e6105758183611612565b810190611761565b8261054b565b6040513d6000823e3d90fd5b6105b291925060203d6020116105b9575b6105aa8183611612565b810190611efa565b90856104f0565b503d6105a0565b6105d79150823d84116105b9576105aa8183611612565b846104a2565b346101dd5760003660031901126101dd57602060ff600654166040519015158152f35b346101dd5760003660031901126101dd57600b5442108061063f575b8061062f575b6020906040519015158152f35b5060065460081c60ff1615610622565b5060ff6006541661061c565b346101dd5760003660031901126101dd576020610666611ee6565b604051908152f35b346101dd5760003660031901126101dd5760206001600160a01b0360105416604051908152f35b346101dd5760803660031901126101dd576106ae61156c565b6106b6611582565b6064359167ffffffffffffffff83116101dd57366023840112156101dd578260040135916106e383611634565b926106f16040519485611612565b80845236602482870101116101dd57602081600092602461071e9801838801378501015260443591611d98565b005b346101dd5760003660031901126101dd576020600f54604051908152f35b346101dd5760003660031901126101dd57602060405160018152f35b346101dd5760003660031901126101dd576020600d54604051908152f35b346101dd5760403660031901126101dd5761079161156c565b602435908115158092036101dd576001600160a01b031690811561080457336000526005602052604060002082600052602052604060002060ff1981541660ff83161790556040519081527f17307eab39ab6107e8899845ad3d59bd9653f200f220920489ca2b5937696c3160203392a3005b507f5b08ba180000000000000000000000000000000000000000000000000000000060005260045260246000fd5b346101dd5760003660031901126101dd57602060405160028152f35b346101dd5760003660031901126101dd5760405160006001548060011c90600181168015610902575b6020831081146102d3578285529081156102af57506001146108a35761024c8361023881850382611612565b600160009081527fb10e2d527612073b26eecdfd717e6a320cf44b4afac2b0732d9fcbe2b7fa0cf6939250905b8082106108e857509091508101602001610238610228565b9192600181602092548385880101520191019092916108d0565b91607f1691610877565b346101dd5760203660031901126101dd57602061066661092a61156c565b611d49565b346101dd5760003660031901126101dd5760206001600160a01b0360085416604051908152f35b346101dd5760203660031901126101dd57602061097460043561221e565b6001600160a01b0360405191168152f35b346101dd5760003660031901126101dd576020600e54604051908152f35b346101dd5760003660031901126101dd576020600754604051908152f35b346101dd5760003660031901126101dd5760206040517f00000000000000000000000000000000000000000000000000000000000000008152f35b346101dd5760003660031901126101dd5760206040516001600160a01b037f0000000000000000000000000000000000000000000000000000000000000000168152f35b346101dd5760003660031901126101dd57602060ff60065460081c166040519015158152f35b346101dd5761071e610a77366115a5565b9060405192610a87602085611612565b60008452611d98565b346101dd5760003660031901126101dd5760065460ff811615610af15760081c60ff16610ac757610abf612255565b6103a4611a05565b7f6507689f0000000000000000000000000000000000000000000000000000000060005260046000fd5b7f92a27daf0000000000000000000000000000000000000000000000000000000060005260046000fd5b346101dd5760003660031901126101dd5760206040517f00000000000000000000000000000000000000000000000000000000000000008152f35b346101dd5761071e610b67366115a5565b916117dc565b346101dd5760003660031901126101dd576000610220604051610b8f816115df565b606081528260208201528260408201528260608201528260808201528260a08201528260c08201528260e0820152606061010082015282610120820152826101408201528261016082015282610180820152826101a0820152826101c0820152826101e0820152826102008201520152600060a05260a0515060a05150604060a05260a05151610c2160a05182611612565b600381527f4e2f410000000000000000000000000000000000000000000000000000000000602082015260105460008060a0515160208101907f95d89b4100000000000000000000000000000000000000000000000000000000825260048152610c8c602482611612565b51906001600160a01b0385165afa610ca2611731565b901561121c57610cbd91925060208082518301019101611761565b905b6000808060a0515160208101907f313ce56700000000000000000000000000000000000000000000000000000000825260048152610cfe602482611612565b51906001600160a01b0386165afa610d14611731565b90611202575b506001600160a01b0360085416610d2f611650565b936001600160a01b03600a54169060065493600b549260075492600d5491600e5494600f549660a0515199630264db7b60e51b8b523060048c015260208b6024818d5afa938415611100578c9b6000956111cb575b5060206001600160a01b03602460a051519e8f9283916370a0823160e01b8352306004840152165afa9b8c156111005760009c61118c575b5060a051517f559ad9d600000000000000000000000000000000000000000000000000000000815230600482015294939291906020866024818f5afa95861561110057600096611158575b50602460208d60a0515192838092630264db7b60e51b82523060048301525afa90811561110057600091611123575b508060648102046064148115171561110d57600460208e60a05151928380927f0156806a0000000000000000000000000000000000000000000000000000000082525afa80156111005760ff916000916110d1575b50169081156110bb57606402049e60a05151608052608051610eac906115df565b608051526080516020015260ff8116151560a051608051015260081c60ff161515608051606001526080516080015260805160a0015260805160c0015260805160e001526080516101000152608051610120015260ff166080516101400152608051610160015260805161018001526080516101a001526001600160a01b0382166080516101c001526080516101e001528060a01c60ff16600211156110a55760ff9060a01c166102006080510152610220608051015260a051516020815280611006610f89608051516102406020850152610260840190611547565b6001600160a01b03602060805101511660a05184015260a051608051015115156060840152606060805101511515608084015260808051015160a084015260a0608051015160c084015260c0608051015160e084015260e060805101516101008401526101006080510151601f1984830301610120850152611547565b610120608051015161014083015260ff610140608051015116610160830152610160608051015161018083015261018060805101516101a08301526001600160a01b036101a06080510151166101c08301526001600160a01b036101c06080510151166101e08301526101e060805101516102008301526110936102006080510151610220840190611598565b61022060805101516102408301520390f35b634e487b7160e01b600052602160045260246000fd5b634e487b7160e01b600052601260045260246000fd5b6110f3915060203d6020116110f9575b6110eb8183611612565b8101906117c3565b38610e8b565b503d6110e1565b60a051513d6000823e3d90fd5b634e487b7160e01b600052601160045260246000fd5b906020823d602011611150575b8161113d60209383611612565b8101031261114d57505138610e36565b80fd5b3d9150611130565b9095506020813d602011611184575b8161117460209383611612565b810103126101dd5751948f610e07565b3d9150611167565b94939291909b506020853d6020116111c3575b816111ac60209383611612565b810103126101dd57602494519b9091929394610dbc565b3d915061119f565b9b50935060208b3d6020116111fa575b816111e860209383611612565b810103126101dd578b9a51938e610d84565b3d91506111db565b6112169150602080825183010191016117c3565b83610d1a565b5060008060a0515160208101907f06fdde030000000000000000000000000000000000000000000000000000000082526004815261125b602482611612565b51906001600160a01b0385165afa611271611731565b9061127d575b50610cbf565b61129291925060208082518301019101611761565b9082611277565b346101dd5760403660031901126101dd576112b261156c565b6024356112be8161221e565b331515806113a2575b8061136b575b61133d5781906001600160a01b0380851691167f8c5be1e5ebec7d5bd14f71427d1e84f3dd0314c0f7b2291e5b200ac8c7c3b925600080a460005260046020526001600160a01b036040600020911673ffffffffffffffffffffffffffffffffffffffff19825416179055600080f35b7fa9fbf51f000000000000000000000000000000000000000000000000000000006000523360045260246000fd5b506001600160a01b038116600052600560205260406000206001600160a01b03331660005260205260ff60406000205416156112cd565b50336001600160a01b03821614156112c7565b346101dd5760003660031901126101dd576020604051620186a08152f35b346101dd5760203660031901126101dd576004356113f08161221e565b50600052600460205260206001600160a01b0360406000205416604051908152f35b346101dd5760003660031901126101dd5761024c610238611650565b346101dd5760003660031901126101dd5760206001600160a01b03600a5416604051908152f35b346101dd5760203660031901126101dd57600435907fffffffff0000000000000000000000000000000000000000000000000000000082168092036101dd57817f80ac58cd00000000000000000000000000000000000000000000000000000000602093149081156114fa575b81156114d0575b5015158152f35b7f01ffc9a700000000000000000000000000000000000000000000000000000000915014836114c9565b7f5b5e139f00000000000000000000000000000000000000000000000000000000811491506114c2565b60005b8381106115375750506000910152565b8181015183820152602001611527565b9060209161156081518092818552858086019101611524565b601f01601f1916010190565b600435906001600160a01b03821682036101dd57565b602435906001600160a01b03821682036101dd57565b9060028210156110a55752565b60609060031901126101dd576004356001600160a01b03811681036101dd57906024356001600160a01b03811681036101dd579060443590565b610240810190811067ffffffffffffffff8211176115fc57604052565b634e487b7160e01b600052604160045260246000fd5b90601f8019910116810190811067ffffffffffffffff8211176115fc57604052565b67ffffffffffffffff81116115fc57601f01601f191660200190565b6040519060008054908160011c91600181168015611727575b6020841081146117135783865285929181156116f45750600114611696575b61169492500383611612565b565b50600080805290917f290decd9548b62a8d60345a988386fc84ba6bc95484008f6362f93160ef3e5635b8183106116d857505090602061169492820101611688565b60209193508060019154838589010152019101909184926116c0565b6020925061169494915060ff191682840152151560051b820101611688565b602483634e487b7160e01b81526022600452fd5b92607f1692611669565b3d1561175c573d9061174282611634565b916117506040519384611612565b82523d6000602084013e565b606090565b6020818303126101dd5780519067ffffffffffffffff82116101dd570181601f820112156101dd57805161179481611634565b926117a26040519485611612565b818452602082840101116101dd576117c09160208085019101611524565b90565b908160209103126101dd575160ff811681036101dd5790565b91906001600160a01b031680156119ca578160005260026020526001600160a01b03604060002054169282331515928361190b575b6001600160a01b039350856118c7575b80600052600360205260406000206001815401905581600052600260205260406000208173ffffffffffffffffffffffffffffffffffffffff19825416179055857fddf252ad1be2c89b69c2b068fc378daa952ba7f163c4a11628f55a4df523b3ef600080a41680830361189457505050565b7f64283d7b0000000000000000000000000000000000000000000000000000000060005260045260245260445260646000fd5b816000526004602052604060002073ffffffffffffffffffffffffffffffffffffffff19815416905585600052600360205260406000206000198154019055611821565b919290508061196d575b1561192257828291611811565b828461193c57637e27328960e01b60005260045260246000fd5b7f177e802f000000000000000000000000000000000000000000000000000000006000523360045260245260446000fd5b50338414801561199d575b806119155750826000526004602052336001600160a01b036040600020541614611915565b5083600052600560205260406000206001600160a01b03331660005260205260ff60406000205416611978565b633250574960e11b600052600060045260246000fd5b9190820391821161110d57565b908160209103126101dd575180151581036101dd5790565b611a0d611ee6565b90611a1733611d49565b916000928111611d215760105460ff8160a01c166002811015611d0d57906001859214611c5a5750506001600160a01b0360105416604051906370a0823160e01b8252306004830152602082602481845afa918215611b6c578592611c26575b5060018303611bfa57611ab5611aae7f00000000000000000000000000000000000000000000000000000000000000005b84612376565b80936119e0565b9180611b77575b5060405163a9059cbb60e01b815233600482015260248101839052906020908290604490829089905af18015611b6c5791611b37917f7084f5476618d8e60b11ef0d7d3f06914655adb8793e28ff7f018d4c76d505d593611694969750611b3f575b5060408051338152602081019290925290918291820190565b0390a1612290565b611b609060203d602011611b65575b611b588183611612565b8101906119ed565b611b1e565b503d611b4e565b6040513d87823e3d90fd5b60405163a9059cbb60e01b81527f00000000000000000000000000000000000000000000000000000000000000006001600160a01b03166004820152602481019190915260208160448189865af18015611bef5715611abc57611be89060203d602011611b6557611b588183611612565b5038611abc565b6040513d88823e3d90fd5b611ab5611aae7f0000000000000000000000000000000000000000000000000000000000000000611aa8565b9091506020813d602011611c52575b81611c4260209383611612565b810103126101dd57519038611a77565b3d9150611c35565b6001600160a01b0316600754813b15611d09576040516323b872dd60e01b8152306004820152336024820152604481019190915294829186916064918391905af1938415611cfc576116949394611cec575b50506007546040805133815260208101929092527f7084f5476618d8e60b11ef0d7d3f06914655adb8793e28ff7f018d4c76d505d5919081908101611b37565b81611cf691611612565b38611cac565b50604051903d90823e3d90fd5b8280fd5b602485634e487b7160e01b81526021600452fd5b6004837f4ee7b845000000000000000000000000000000000000000000000000000000008152fd5b6001600160a01b03168015611d6957600052600360205260406000205490565b7f89c62b6400000000000000000000000000000000000000000000000000000000600052600060045260246000fd5b90611da48382846117dc565b803b611db1575b50505050565b602091611df76001600160a01b03809316956040519586948594630a85bd0160e11b86523360048701521660248501526044840152608060648401526084830190611547565b03816000865af18091600091611e87575b5090611e395750611e17611731565b80519081611e345782633250574960e11b60005260045260246000fd5b602001fd5b7fffffffff00000000000000000000000000000000000000000000000000000000630a85bd0160e11b911603611e73575038808080611dab565b633250574960e11b60005260045260246000fd5b6020813d602011611ede575b81611ea060209383611612565b81010312611eda5751907fffffffff000000000000000000000000000000000000000000000000000000008216820361114d575038611e08565b5080fd5b3d9150611e93565b600b54421015611ef557600290565b600190565b908160209103126101dd57516001600160a01b03811681036101dd5790565b611f2233611d49565b600090156121f657600b5442116121ce5760105460ff8160a01c1660028110156121ba5760011461211257506010546007546040516323b872dd60e01b815233600482015230602482015260448101919091526001600160a01b039091169060208160648186865af18015612107576120ea575b50611fc46007547f000000000000000000000000000000000000000000000000000000000000000090612376565b918261202e575b5050612015611ffd7f2da466a7b24304f47e87fa2e1e5a81b9831ce54fec19055ce277ca2f39ba42c4926007546119e0565b60408051338152602081019290925290918291820190565b0390a1611694600160ff19600654161760065542600d55565b60405163a9059cbb60e01b81527f00000000000000000000000000000000000000000000000000000000000000006001600160a01b0316600482015260248101849052916020908390604490829085905af19081156120de57507f2da466a7b24304f47e87fa2e1e5a81b9831ce54fec19055ce277ca2f39ba42c49261201592611ffd926120bf575b509250611fcb565b6120d79060203d602011611b6557611b588183611612565b50386120b7565b604051903d90823e3d90fd5b6121029060203d602011611b6557611b588183611612565b611f96565b6040513d85823e3d90fd5b6001600160a01b0316600754813b15611d09576040516323b872dd60e01b815233600482015230602482015260448101919091529082908290606490829084905af180156121af5761219f575b50506007546040805133815260208101929092527f2da466a7b24304f47e87fa2e1e5a81b9831ce54fec19055ce277ca2f39ba42c4919081908101612015565b816121a991611612565b3861215f565b6040513d84823e3d90fd5b602483634e487b7160e01b81526021600452fd5b807fd5123f2a0000000000000000000000000000000000000000000000000000000060049252fd5b807fc618fe6b0000000000000000000000000000000000000000000000000000000060049252fd5b8060005260026020526001600160a01b0360406000205416908115612241575090565b637e27328960e01b60005260045260246000fd5b600260095414612266576002600955565b7f3ee5aeb50000000000000000000000000000000000000000000000000000000060005260046000fd5b6006805461ff00191661010017905542600e55600090600103612317576001600160a01b0360085416803b15611eda578180916024604051809481937f515ce5170000000000000000000000000000000000000000000000000000000083523360048401525af180156121af57612305575050565b612310828092611612565b61114d5750565b6001600160a01b0360085416803b15611eda578180916004604051809481937fb5f4d38c0000000000000000000000000000000000000000000000000000000083525af180156121af57612369575050565b8161237391611612565b50565b81810291818304149015171561110d57620186a090049056fea2646970667358221220fc4f5edcbe874fcf5b06efa15962595d1290fdd9f0149b86c873f524b86c6a4e64736f6c634300081c0033a2646970667358221220de2577d1b120b7774f6488030358a56c5b9e263bc73c11f98f5d99b853e07c0564736f6c634300081c0033a264697066735822122041b571dd2bf3ed6de124dc3550404156488e265c7b2ddd06f1620a7b4aba90d264736f6c634300081c0033",
  "linkReferences": {},
  "deployedLinkReferences": {}
}